:020000040800F2
:10000000F8100020050400080D0400080F04000883
:100010001104000813040008150400080000000083
:10002000000000000000000000000000D5020008F1
:1000300019040008000000008D030008F103000807
:100040001F0400081F0400081F0400081F04000804
:100050001F0400081F040008ED040008A1060008A2
:10006000D106000801070008310700081F04000836
:100070001F0400081F0400081F0400081F040008D4
:100080001F0400081F0400081F04000800000000EF
:1000900000000000000000000000000061070008F0
:1000A0003D0D00089D0D00086D0D00081F0400089F
:1000B000CD0D0008FD0D00082D0E0008A508000854
:1000C0001F040008890900081F0400081F04000815
:1000D0001F0400088D0E0008ED0E0008000000004F
:1000E0001D050008510B00081F0400080000000057
:1000F0000000000000000000000000001F040008D5
:10010000000000001F0400085D0E00081F04000826
:1001100000000000000000000000000000000000DF
:100120001F0400081F0400081F0400081F04000823
:100130001F04000800000000000000000000000094
:100140000000000000000000000000001F04000884
:100150001F0400081F0400081F0400084D0F0008BA
:100160006D0A00081F0400080000000000000000E5
:10017000000000000000000000000000000000007F
:10018000000000001F040008000000000000000044
:100190001F04000800F002F800F054F814A696E8D6
:1001A000000CB244B344DA4501D100F04BF8BAE890
:1001B0000F000FA696E83000A5EB040504EB060738
:1001C000AAEB0704A7F101074FEA15154FEA34140B
:1001D000A4F10104AC4201D300F034F813F0010F94
:1001E00018BFFB1A43F0010300F001F8DBE71847E2
:1001F00088440000A8440000103A24BF78C878C1A1
:10020000FAD8520724BF30C830C144BF04680C601C
:1002100070470000704700000023002400250026DE
:10022000103A28BF78C1FBD8520728BF30C148BF59
:100230000B6070471FB504F03BF800F00BF91FBDD1
:1002400010B510BD00F01CF91146FFF7F3FF0FB415
:1002500001F0AEFE0FBC01F0B9FE00F036F903B4B8
:10026000FFF7EEFF03BC00F039F9000080F30988C6
:100270007047EFF309807047684680F309880448A7
:100280000078C00714BF0220032080F31488704751
:10029000ED450008DFF818C0EFF305831B0618BF13
:1002A0006047EFF31483DB0708BF604700DF704748
:1002B0002B280008DFF818C0EFF305831B0618BFD2
:1002C0006047EFF31483DB0708BF604700DF704728
:1002D000092A0008EFF30980816911F8021CE1BBCB
:1002E00090E80F1010B5E047BDE81040EFF3098C1F
:1002F0008CE80700214B93E80600914208BF704745
:1003000041B91EF0100F16D11D49086820F00100F8
:10031000086010E01EF0100F06BF2CED108A0120BF
:10032000002081F825002CE9F00FC1F828C00CB49A
:1003300002F014FF0CBC1A60D2F828C0BCE8F00F21
:1003400092F8250000280EBF6FF0020E6FF0120E1B
:10035000BCEC108A8CF30988704710B5094A126802
:10036000914209D8084C54F8214090E80F10A0475A
:10037000EFF3098C8CE80F0010BD00000C0000208A
:1003800034EF00E0202100082021000810B502F021
:10039000A9FDBDE81040154B93E80600914208BF47
:1003A0007047EFF3098C1EF0100F06BF2CED108A7A
:1003B0000120002081F825002CE9F00FC1F828C0A9
:1003C0000CB402F0CBFE0CBC1A60D2F828C0BCE81A
:1003D000F00F92F8250000280EBF6FF0020E6FF0AC
:1003E000120EBCEC108A8CF3098870470C000020B8
:1003F00010B502F07BFFCCE710B502F015FA02F061
:1004000075FFC6E70948804709480047FEE7FEE751
:10041000FEE7FEE7FEE7FEE7FEE7FEE7FEE7FEE7B4
:1004200004480549054A064B70470000290D00089D
:1004300095010008F80A0020F8100020F80C0020B0
:10044000F80C002000487047940000207047704767
:100450007047000008487CB578440090074878440D
:10046000009C0546019004E020460168084480474E
:10047000241DAC42F8D17CBD3C4200004642000045
:100480007546FFF7DFFFAE4605006946534620F08C
:100490000700854618B020B5FFF7C2FFBDE8204031
:1004A0004FF000064FF000074FF000084FF0000B30
:1004B000AC46ACE8C009ACE8C009ACE8C009ACE89F
:1004C000C00921F007018D46704710B50446AFF30F
:1004D00000802046BDE81040FFF7C1BE014918204A
:1004E000ABBEFEE7260002007047000080B540F278
:1004F0002C10C2F20000006838B1FFE740F22C1067
:10050000C2F2000000688047FFE743F61441C4F2DE
:100510000101086840F00100086080BD80B543F625
:100520001440C4F2010000684005002817D5FFE719
:1005300040F23410C2F20000006838B1FFE740F228
:100540003410C2F2000000688047FFE743F6144110
:10055000C4F20101086840F480600860FFE743F6D8
:100560001440C4F2010000680005002817D5FFE719
:1005700040F23810C2F20000006838B1FFE740F2E4
:100580003810C2F2000000688047FFE743F61441CC
:10059000C4F20101086840F400600860FFE743F618
:1005A0001440C4F201000068C004002817D5FFE71A
:1005B00040F23C10C2F20000006838B1FFE740F2A0
:1005C0003C10C2F2000000688047FFE743F6144188
:1005D000C4F20101086840F480500860FFE743F668
:1005E0001440C4F2010000688004002817D5FFE71A
:1005F00040F24010C2F20000006838B1FFE740F25C
:100600004010C2F2000000688047FFE743F6144143
:10061000C4F20101086840F400500860FFE743F6A7
:100620001440C4F2010000684004002817D5FFE719
:1006300040F24410C2F20000006838B1FFE740F217
:100640004410C2F2000000688047FFE743F61441FF
:10065000C4F20101086840F480400860FFE743F6F7
:100660001440C4F2010000680004002817D5FFE719
:1006700040F24810C2F20000006838B1FFE740F2D3
:100680004810C2F2000000688047FFE743F61441BB
:10069000C4F20101086840F400400860FFE780BD33
:1006A00080B540F23010C2F20000006838B1FFE7B8
:1006B00040F23010C2F2000000688047FFE743F6C6
:1006C0001441C4F20101086840F00200086080BDD6
:1006D00080B540F24C10C2F20000006838B1FFE76C
:1006E00040F24C10C2F2000000688047FFE743F67A
:1006F0001441C4F20101086840F00400086080BDA4
:1007000080B540F25010C2F20000006838B1FFE737
:1007100040F25010C2F2000000688047FFE743F645
:100720001441C4F20101086840F00800086080BD6F
:1007300080B540F25410C2F20000006838B1FFE703
:1007400040F25410C2F2000000688047FFE743F611
:100750001441C4F20101086840F01000086080BD37
:1007600080B543F61440C4F20100006880060028FA
:1007700017D5FFE740F25810C2F20000006838B108
:10078000FFE740F25810C2F2000000688047FFE720
:1007900043F61441C4F20101086840F020000860EB
:1007A000FFE743F61440C4F2010000684006002849
:1007B00017D5FFE740F25C10C2F20000006838B1C4
:1007C000FFE740F25C10C2F2000000688047FFE7DC
:1007D00043F61441C4F20101086840F0400008608B
:1007E000FFE743F61440C4F2010000680006002849
:1007F00017D5FFE740F26010C2F20000006838B180
:10080000FFE740F26010C2F2000000688047FFE797
:1008100043F61441C4F20101086840F0800008600A
:10082000FFE743F61440C4F201000068C005002849
:1008300017D5FFE740F26410C2F20000006838B13B
:10084000FFE740F26410C2F2000000688047FFE753
:1008500043F61441C4F20101086840F48070086056
:10086000FFE743F61440C4F2010000688005002849
:1008700017D5FFE740F26810C2F20000006838B1F7
:10088000FFE740F26810C2F2000000688047FFE70F
:1008900043F61441C4F20101086840F40070086096
:1008A000FFE780BD80B545F21440C4F20000016846
:1008B00040F22420C2F20000016000788007002886
:1008C00019D5FFE745F21840C4F20000006840F275
:1008D0002421C2F20001086040F27410C2F200004C
:1008E000006838B1FFE740F27410C2F200000068FF
:1008F0008047FFE746E040F22420C2F20000007883
:10090000400600281ED5FFE745F21040C4F2000063
:10091000006840F22021C2F20001087040F26C1021
:10092000C2F20000006860B1FFE740F26C10C2F252
:100930000000016840F22020C2F2000000788847E1
:10094000FFE71FE040F22420C2F200000078C0065A
:10095000002817D5FFE745F20041C4F200010868FE
:1009600040F48060086040F27010C2F2000000683D
:1009700038B1FFE740F27010C2F200000068804713
:10098000FFE7FFE780BD000080B545F61400C4F224
:100990000000016840F22420C2F2000001600078EB
:1009A0008007002819D5FFE745F61800C4F20000BB
:1009B000006840F22421C2F20001086040F2801079
:1009C000C2F20000006838B1FFE740F28010C2F2C6
:1009D000000000688047FFE746E040F22420C2F2B2
:1009E00000000078400600281ED5FFE745F61000FD
:1009F000C4F20000006840F22021C2F20001087039
:100A000040F27810C2F20000006860B1FFE740F2E7
:100A10007810C2F20000016840F22020C2F200000B
:100A200000788847FFE71FE040F22420C2F2000070
:100A30000078C006002817D5FFE745F60001C4F28C
:100A40000001086840F48060086040F27C10C2F247
:100A50000000006838B1FFE740F27C10C2F20000ED
:100A600000688047FFE7FFE780BD000080B545F6DE
:100A70001440C4F20000016840F22420C2F20000D9
:100A8000016000788007002819D5FFE745F6184077
:100A9000C4F20000006840F22421C2F200010860A4
:100AA00040F28C10C2F20000006838B1FFE740F25B
:100AB0008C10C2F2000000688047FFE746E040F279
:100AC0002420C2F200000078400600281ED5FFE76F
:100AD00045F61040C4F20000006840F22021C2F246
:100AE0000001087040F28410C2F20000006860B19A
:100AF000FFE740F28410C2F20000016840F22020BB
:100B0000C2F2000000788847FFE71FE040F224208F
:100B1000C2F200000078C006002817D5FFE745F6AE
:100B20000041C4F20001086840F48060086040F2AF
:100B30008810C2F20000006838B1FFE740F2881068
:100B4000C2F2000000688047FFE7FFE780BD0000B9
:100B500080B543F61440C4F2010000688003002809
:100B600049D5FFE742F60C00C4F200000068C0055A
:100B7000002817D5FFE740F22410C2F200000068F9
:100B800038B1FFE740F22410C2F20000006880474D
:100B9000FFE742F60C01C4F20001086820F48070FF
:100BA0000860FFE742F60C00C4F200000068800510
:100BB000002817D5FFE740F22810C2F200000068B5
:100BC00038B1FFE740F22810C2F200000068804709
:100BD000FFE742F60C01C4F20001086820F400703F
:100BE0000860FFE743F61441C4F20101086840F4CD
:100BF00000300860FFE780BD86B0002105910491B8
:100C0000022003900291019043F60800C4F2020012
:100C1000006800F00C0005900598009040B1FFE7D7
:100C2000009804280ED0FFE70098082814D059E057
:100C300040F22C01C2F2000142F20040C0F2F40086
:100C4000086059E040F22C01C2F2000141F200209C
:100C5000C0F27A0008604FE043F60400C4F20200DC
:100C60000168C1F380510291006800F03F000190DB
:100C7000029888B1FFE7019941F20020C0F27A00A2
:100C8000B0FBF1F043F60401C4F202010968C1F3BC
:100C900088114843049010E0019942F20040C0F2EC
:100CA000F400B0FBF1F043F60401C4F2020109685C
:100CB000C1F3881148430490FFE743F60400C4F2EF
:100CC0000200006800F44031022000EBD1300390B4
:100CD00004980399B0FBF1F040F22C01C2F200013C
:100CE000086009E040F22C01C2F2000142F200402B
:100CF000C0F2F4000860FFE743F60800C4F2020007
:100D00000068C0B2010944F26830C0F60000405CDF
:100D10000590059A40F22C01C2F200010868D0400B
:100D2000086006B0704700004EF68851CEF2000110
:100D3000086840F4700008607047000080B544F215
:100D40001001C4F20101086820F00100086040F2BF
:100D5000A810C2F20000006838B1FFE740F2A81006
:100D6000C2F2000000688047FFE780BD80B544F60E
:100D70001001C4F20101086820F00100086040F28F
:100D80009410C2F20000006838B1FFE740F29410FE
:100D9000C2F2000000688047FFE780BD80B544F2E2
:100DA0001041C4F20101086820F00100086040F21F
:100DB0009010C2F20000006838B1FFE740F29010D6
:100DC000C2F2000000688047FFE780BD80B51021B7
:100DD000C4F20001086820F00100086040F2981099
:100DE000C2F20000006838B1FFE740F29810C2F28A
:100DF000000000688047FFE780BD000080B540F23A
:100E00001041C4F20001086820F00100086040F2BF
:100E10009C10C2F20000006838B1FFE740F29C105D
:100E2000C2F2000000688047FFE780BD80B540F651
:100E30001001C4F20001086820F00100086040F2CF
:100E4000A010C2F20000006838B1FFE740F2A01025
:100E5000C2F2000000688047FFE780BD80B540F621
:100E60001041C4F20001086820F00100086040F25F
:100E7000A410C2F20000006838B1FFE740F2A410ED
:100E8000C2F2000000688047FFE780BD80B582B0F5
:100E900041F20000C4F2010000688006002801D47D
:100EA000FFE720E040F2AC10C2F20000006868B139
:100EB000FFE740F2AC10C2F20000016841F204000A
:100EC000C4F201000068C0B28847FFE741F20000A9
:100ED000C4F201000068019041F20400C4F2010074
:100EE00000680190FFE702B080BD000080B582B0CD
:100EF00044F20040C4F2000000688006002801D4DB
:100F0000FFE720E040F2B010C2F20000006868B1D4
:100F1000FFE740F2B010C2F20000016844F2044062
:100F2000C4F200000068C0B28847FFE744F2004006
:100F3000C4F200000068019044F20440C4F20000D2
:100F400000680190FFE702B080BD000080B582B06C
:100F500041F20040C4F2010000688006002801D47C
:100F6000FFE720E040F2B410C2F20000006868B170
:100F7000FFE740F2B410C2F20000016841F2044001
:100F8000C4F201000068C0B28847FFE741F20040A8
:100F9000C4F201000068019041F20440C4F2010073
:100FA00000680190FFE702B080BD000080B500F04E
:100FB0003FFF80BD80B500F063FF80BD80B500F0CD
:100FC00057FF00F09DFF00F0A3FF00F0A9FF80BDD8
:100FD00080B500F075FF80BD80B582B00190FFE75D
:100FE0000198007838B1FFE70198411C0191007821
:100FF00000F076F9F4E702B080BD000080B5FFF79D
:10100000FBFD4EF6FC51CEF20001086840F0807006
:10101000086041F20001CEF20001086840F00100D2
:10102000086080BD80B582B08DF807009DF807107C
:1010300040F2D010C2F2000000F088FE02B080BD85
:1010400080B5FFF7D9FD40F22C00C2F20000006825
:1010500080BD00000000000080B582B0FFF7F0FF07
:10106000019043F60800C4F202000068C0F3822039
:10107000043801460091032858D80099DFE801F0B0
:1010800002172C41019802F066FE41EC100B9FED17
:10109000301B53EC112B51EC100B02F099FC41EC7E
:1010A000100B51EC100B02F029FE01903FE001986B
:1010B00002F051FE41EC100B9FED231B53EC112B62
:1010C00051EC100B02F084FC41EC100B51EC100BB6
:1010D00002F014FE01902AE0019802F03CFE41EC7F
:1010E000100B9FED171B53EC112B51EC100B02F062
:1010F0006FFC41EC100B51EC100B02F0FFFD019066
:1011000015E0019802F027FE41EC100B9FED0A1B41
:1011100053EC112B51EC100B02F05AFC41EC100B6C
:1011200051EC100B02F0EAFD019000E0FFE701989E
:1011300002B080BD00BF00BF0000000000003040D2
:1011400000000000000020400000000000001040EF
:10115000000000000000004080B582B0FFF770FF83
:10116000019043F60800C4F202000068C0F3423068
:10117000043801460091032858D80099DFE801F0AF
:1011800002172C41019802F0E6FD41EC100B9FED97
:10119000301B53EC112B51EC100B02F019FC41ECFD
:1011A000100B51EC100B02F0A9FD01903FE00198EB
:1011B00002F0D1FD41EC100B9FED231B53EC112BE2
:1011C00051EC100B02F004FC41EC100B51EC100B35
:1011D00002F094FD01902AE0019802F0BCFD41EC80
:1011E000100B9FED171B53EC112B51EC100B02F061
:1011F000EFFB41EC100B51EC100B02F07FFD019066
:1012000015E0019802F0A7FD41EC100B9FED0A1BC1
:1012100053EC112B51EC100B02F0DAFB41EC100BEC
:1012200051EC100B02F06AFD019000E0FFE701981D
:1012300002B080BD00BF00BF0000000000003040D1
:1012400000000000000020400000000000001040EE
:10125000000000000000004080B584B003900398B7
:1012600002F079FD41EC100B8DED000B40F22C00EB
:10127000C2F20000006802F06EFD41EC100B9FED21
:10128000161B53EC112B51EC100B02F0A1FB9DED42
:10129000000B41EC110B53EC112B51EC100B02F035
:1012A000E5FD41EC100B51EC100B02F027FD029014
:1012B00041F20401CEF2000100200860FFE741F294
:1012C0000400CEF2000000680299884201D2FFE7D4
:1012D000F5E704B080BD00BF0000000080842E410F
:1012E00080B584B08DF80F009DF80F00202825DB15
:1012F000FFE79DF80F007E2820DCFFE79DF80F0038
:101300002038029000200190FFE70198042811DCAA
:10131000FFE7029800EB800144F28030C0F6000045
:1013200008440199405CFFF77DFEFFE7019801301A
:101330000190EAE70020FFF775FEFFE704B080BDEB
:1013400081B000900098007900F0010001B0704772
:1013500082B001908DF8031001999DF8030000F010
:101360000100087102B0704781B00090009844F20B
:101370006051C0F60001083101600021017101B027
:101380007047000080B584B00390029103980190EB
:10139000029900F06FF8019800F002F804B080BDE7
:1013A00080B582B001900198017B4A00032101FAC7
:1013B00002F38268116899431160017B4A000121A0
:1013C00001FA02F3826811681943116001680A6822
:1013D0000021904702B080BD80B584B00390029197
:1013E0008DF8072003980090029900F043F80098C8
:1013F000017B4A00022101FA02F382681168194355
:101400001160007B072817DCFFE70098017B8A004A
:101410000F2101FA02F38268116A994311629DF863
:10142000071001F00F01027B920001FA02F28168BD
:10143000086A104308621BE00098017B6FF01F02EE
:1014400002EB81030F2101FA03FC8368596A21EA48
:101450000C0159629DF8071001F00F01037B02EBAC
:10146000830201FA02F28168486A10434862FFE78A
:1014700004B080BD84B0039002910398009002985C
:1014800000F0F0000146019180B1FFE701981028BB
:101490001AD0FFE70198202825D0FFE701983028CF
:1014A00030D0FFE7019840283BD049E00099002068
:1014B000C4F20200886043F63001C4F202010868F9
:1014C00040F0010008603BE0009940F20040C4F2A7
:1014D0000200886043F63001C4F20201086840F05F
:1014E000020008602CE0009940F60000C4F20200FF
:1014F000886043F63001C4F20201086840F004003D
:1015000008601DE0009940F60040C4F202008860C7
:1015100043F63001C4F20201086840F00800086098
:101520000EE0009941F20000C4F20200886043F628
:101530003001C4F20201086840F010000860FFE7C3
:101540000098029901F00F0101730299C1F3031190
:101550004173027B012101FA02F20261027B103227
:1015600091404161017B4A00032101FA02FC83683A
:101570001A6822EA0C021A608368D0F810C05A6810
:1015800022EA0C025A60027B520001FA02FC8368D4
:101590009A6822EA0C029A60027B520001FA02FC6D
:1015A00083689A6842EA0C029A60027B520001FA50
:1015B00002F28168C8689043C86004B070470000B8
:1015C00081B0009000988168096902691140002982
:1015D00018BF01210171007900F0010001B07047CE
:1015E00083B002908DF80710029800909DF80710C4
:1015F00001F0010101710079C00738B1FFE70098DF
:101600008168026988691043886106E000988168F2
:101610004269886910438861FFE703B070470000A2
:1016200080B582B0019001980090FFF79DFE009870
:1016300044F27051C0F600010831016002B080BD73
:1016400080B584B003908DF80B1003980190016869
:101650000A689DF80B1001F001019047019800798C
:1016600000F0010004B080BD80B582B0019000910F
:1016700001980099FFF786FE02B080BD81B000900E
:1016800000984168086840F08000086001B0704729
:1016900081B000900098416808684FF67F72104052
:1016A000086001B07047000082B001908DF803100F
:1016B0000198426811684FF6FC73194011609DF85B
:1016C000031001F00302416808681043086002B08B
:1016D000704700000000000080B59AB0DDF870C0CF
:1016E00019908DF863108DF862208DF8613019988B
:1016F00014900120179005208DF85B0007208DF8CD
:101700005A009DF863000738014615912F2800F212
:1017100054801599DFE801F0185151515151515140
:101720005151513C515118515151515151515151F7
:101730002A5151512A51515151515151513C5151FC
:10174000515151515151513C149943F20000C4F28E
:101750000100486043F64401C4F20201086840F405
:1017600080500860FFF7F8FC179026E0149943F6C4
:101770000000C4F20000486043F64001C4F20201D8
:10178000086840F480400860FFF766FC179014E09A
:10179000149906208DF85B0043F60040C4F2000067
:1017A000486043F64001C4F20201086840F400407A
:1017B0000860FFF751FC1790FFE7149808309DF878
:1017C00062109DF85B20FFF707FE149820309DF80B
:1017D00063109DF85B20FFF7FFFD149838309DF8EB
:1017E00061109DF85B20FFF7F7FD07208DF8590089
:1017F000FFE79DF85900FF2800F04281FFE79DF8C0
:10180000590001461391072800F233811399DFE84C
:1018100011F008002D00520077009C00C100E60086
:101820000B01179802F097FA41EC100B9FEDD41BB7
:1018300053EC112B51EC100B02F0CAF841EC100BD9
:101840008DED100B1C9802F086FA9DED101B41ECFB
:10185000100B51EC110B53EC102B02F00DFD20B9C5
:10186000FFE700208DF85A00FFE702E1179802F029
:1018700072FA41EC100B9FEDC41B53EC112B51EC91
:10188000100B02F0A5F841EC100B8DED0E0B1C981F
:1018900002F061FA9DED0E1B41EC100B51EC110BA7
:1018A00053EC102B02F0E8FC20B9FFE701208DF883
:1018B0005A00FFE7DDE0179802F04DFA41EC100BFB
:1018C0009FEDB31B53EC112B51EC100B02F080F881
:1018D00041EC100B8DED0C0B1C9802F03CFA9DEDC9
:1018E0000C1B41EC100B51EC110B53EC102B02F0C4
:1018F000C3FC20B9FFE702208DF85A00FFE7B8E0EB
:10190000179802F028FA41EC100B9FEDD71B53EC0F
:10191000112B51EC100B02F05BF841EC100B8DED2C
:101920000A0B1C9802F017FA9DED0A1B41EC100BF4
:1019300051EC110B53EC102B02F09EFC20B9FFE789
:1019400003208DF85A00FFE793E0179802F003FA9E
:1019500041EC100B9FEDC21B53EC112B51EC100B03
:1019600002F036F841EC100B8DED080B1C9802F0DC
:10197000F2F99DED081B41EC100B51EC110B53ECEF
:10198000102B02F079FC20B9FFE704208DF85A00F3
:10199000FFE76EE0179802F0DEF941EC100B9FEDC7
:1019A000AE1B53EC112B51EC100B02F011F841EC73
:1019B000100B8DED060B1C9802F0CDF99DED061B6A
:1019C00041EC100B51EC110B53EC102B02F054FCBA
:1019D00020B9FFE705208DF85A00FFE749E0179886
:1019E00002F0B9F941EC100B9FED991B53EC112B50
:1019F00051EC100B01F0ECFF41EC100B8DED040BE2
:101A00001C9802F0A8F99DED041B41EC100B51EC61
:101A1000110B53EC102B02F02FFC20B9FFE706202E
:101A20008DF85A00FFE724E0179802F094F941EC92
:101A3000100B9FED851B53EC112B51EC100B01F09B
:101A4000C7FF41EC100B8DED020B1C9802F083F9DF
:101A50009DED021B41EC100B51EC110B53EC102BC4
:101A600002F00AFC20B9FFE707208DF85A00FFE7D3
:101A7000FFE7FFE79DF8590001388DF85900B8E6F7
:101A80001498426800215160426811609DF85A1014
:101A900001F007034268116841EAC301116042681E
:101AA000516841F0040151604268116841F004013D
:101AB00011604168086840F0400008609DF85A00D5
:101AC00001460191072800F2BB800199DFE801F08F
:101AD00004192E4364798EA3179802F03CF941EC67
:101AE000100B9FED671B53EC112B51EC100B01F009
:101AF0006FFF41EC100B51EC100B02F0FFF8179048
:101B00009EE0179802F027F941EC100B9FED5A1B4D
:101B100053EC112B51EC100B01F05AFF41EC100B60
:101B200051EC100B02F0EAF8179089E0179802F0D8
:101B300012F941EC100B9FED4E1B53EC112B51ECA5
:101B4000100B01F045FF41EC100B51EC100B02F0B3
:101B5000D5F8179074E0179802F0FDF841EC100BDF
:101B60009FED411B53EC112B51EC100B01F030FF9A
:101B700041EC100B51EC100B02F0C0F817905FE035
:101B800000000000000000400000000000001040C5
:101B90000000000000002040179802F0DCF841EC43
:101BA000100B9FED2F1B53EC112B51EC100B01F080
:101BB0000FFF41EC100B51EC100B02F09FF8179047
:101BC0003EE0179802F0C7F841EC100B9FED221B86
:101BD00053EC112B51EC100B01F0FAFE41EC100B01
:101BE00051EC100B02F08AF8179029E0179802F0D8
:101BF000B2F841EC100B9FED161B53EC112B51EC7E
:101C0000100B01F0E5FE41EC100B51EC100B02F053
:101C100075F8179014E0179802F09DF841EC100B3E
:101C20009FED091B53EC112B51EC100B01F0D0FE72
:101C300041EC100B51EC100B02F060F81790FFE72D
:101C40001AB080BD00BF00BF00000000000070405F
:101C50000000000000006040000000000000504054
:101C60000000000000004040000000000000304084
:101C700000000000000020400000000000001040B4
:101C8000000000000000004080B584B00390029185
:101C9000039802990268D2F808C06A4611600721C9
:101CA00006220523E04704B080BD000080B582B065
:101CB0000190019801684A684AF22011C0F20701B8
:101CC000904702B080BD000083B002908DF80710ED
:101CD000029900919DF807004968C860FFE70098E5
:101CE000406880688007002801D4FFE7F7E7FFE736
:101CF0000098406880680006002801D5FFE7F7E7F4
:101D000000984068C068C0B203B0704780B584B026
:101D100003900398029000F073F8029844F2805107
:101D2000C0F6000101F10802014641F8382B01918B
:101D30000830FFF775FC02982030FFF771FC01981E
:101D4000FFF76EFC029804B080BD000080B582B041
:101D500001908DF8031001989DF803100268D26974
:101D600090479DF8030002B080BD000080B582B0AE
:101D7000019001980168CA690021904702B080BDB6
:101D800081B0009001B0704781B0009001B0704701
:101D900082B001908DF8031002B0704782B0DDF878
:101DA00008C001908DF803108DF802208DF80130E5
:101DB00002B0704710B583B08C46864607980699E6
:101DC000059CCDF808E08DF807C08DF806208DF849
:101DD00005308DF804108DF8030003B010BD00002D
:101DE00082B00190009102B07047000081B0009075
:101DF00001B0704782B001908DF80310FEDE000044
:101E000081B00090009844F2B051C0F60001083152
:101E1000016001B07047000082B001908DF803109E
:101E2000FEDE000081B00090FEDE00000000000039
:101E300080B59FED0B0B00F08FF99FED0B1B53EC62
:101E4000112B51EC100B02F011F841EC100B40F289
:101E50002820C2F2000080ED000B80BD00BF00BF53
:101E6000000000000000F03F0000000000001040F3
:101E700080B540F2D010C2F20000FFF747FF80BDEE
:101E800080B59FED0B0B00F067F99FED0B1B53EC3A
:101E9000112B51EC100B01F0E9FF41EC100B40F25B
:101EA0003020C2F2000080ED000B80BD00BF00BFFB
:101EB000000000000000F03F0000000000001040A3
:101EC00080B59FED0B0B00F047F99FED0B1B53EC1A
:101ED000112B51EC100B01F0C9FF41EC100B40F23B
:101EE0003820C2F2000080ED000B80BD00BF00BFB3
:101EF000000000000000F03F000000000000104063
:101F000080B540F20C10C2F20000FFF789FB80BDE3
:101F100080B540F2B810C2F20000FFF781FB80BD2F
:101F200080B540F2F400C2F20000FFF779FB80BDFB
:101F300086B0009040F20500C2F200000078C0B107
:101F4000FFE70098006805904FF6FF70ADF81200AB
:101F500042F66D60C0F60000039005980290BDF84F
:101F600012000190DDF80CC00298019900DF029088
:101F7000FFE706B07047000084B0009040F2050013
:101F8000C2F20000007880B1FFE70098006803907B
:101F900042F69550C0F60000029003980190DDF8DB
:101FA00008C0019800DF0190FFE704B0704700000F
:101FB00000F094FB44F20460C0F60000002100F041
:101FC000E1FB00F09DFBFFE7FEE7000080B58AB073
:101FD000002003900990FFF711F840F20C10C2F2B4
:101FE000000007900921FFF73FFB079801210691A8
:101FF000FFF726FB069940F2B810C2F200000290EB
:10200000FFF732FB02980699FFF71AFB039940F29B
:10201000F400C2F200000490FFF726FB0498069932
:10202000FFF70EFB694644F24020C0F20F00086043
:1020300040F2D010C2F200000590072106220523CD
:10204000FFF74AFB64200190FFF706F90298039915
:10205000FFF7F6FA0198FFF7FFF802980699FFF7E5
:10206000EFFA03990798FFF7EBFA03990498FFF743
:10207000E7FA05982121FFF769FE05988D21FFF702
:1020800065FE05980421FFF761FE05981421FFF70E
:102090005DFE05982021FFF759FE05980C21FFF7FA
:1020A00055FE06990798FFF7CBFA44F22C60C0F66C
:1020B0000000FEF791FF44F23B60C0F6000008907C
:1020C000FEF78AFF44F24A60C0F60000FEF784FF84
:1020D0000898FEF781FF44F25960C0F60000FEF751
:1020E0007BFF44F26860C0F60000FEF775FFFFE773
:1020F000FEE7000082B0019001980138014600918E
:10210000032808D80099DFE801F00203040503E082
:1021100002E001E000E0FFE7FFE7FEE7FFE7FEE7A0
:102120000000000003B401984100009850EAC1206B
:1021300018BF04204A0D18BF40F0010040F2FF72A2
:10214000B2EB515F08BF40F00200012808BF052034
:1021500002B070470000000070B59B482DED020BE7
:102160002DED068B079D25F00044A04218DC974812
:10217000844202DC0AD1069840B19DED060BBDEC0D
:10218000068B02B0BDE8704000F0CEB9002DCCBF88
:102190009FED8F0B9FED900BBDEC068B02B070BDD9
:1021A0008F48A04215DD8F48A042D8BF4FF0FF34C2
:1021B00058DD9DED060B51EC100BFFF7B3FF042823
:1021C00008BF00F0BDF99DED060BBDEC068B02B01B
:1021D00070BD9DED060B51EC100B00F015FACDE92A
:1021E000060181489FED828BA0423CDD8248A042DF
:1021F0001FDD00249FED82AB9DED060B53EC1A2BE7
:1022000051EC100B01F030FB9DED060B41EC190B6E
:1022100053EC1A2B51EC100B01F028FE53EC182B49
:1022200001F02EFF53EC192B01F0D2FBCDE9060192
:1022300049E09DED060B012453EC182B51EC100BDB
:1022400001F012FB9DED060B41EC190B53EC182B22
:1022500051EC100B01F014FF53EC192B01F0B8FBFB
:10226000CDE906012FE06848A0421FDD02249FED62
:10227000689B9DED060B53EC192B51EC100B01F0F4
:10228000F5FD53EC182B01F0EFFA9DED060B41EC38
:10229000180B53EC192B51EC100B01F0F1FE53EC21
:1022A000182B01F095FBCDE906010CE09DED060B26
:1022B000032453EC102B9FED580B51EC100B01F045
:1022C00087FBCDE906019DED060B53EC102B51EC7D
:1022D000100B01F0CBFD41EC180B53EC182B01F067
:1022E000C5FD41EC190B4E480621B0EE490AF0EE4F
:1022F000690A784400F09CF853EC182B51EC100B51
:1023000001F0B4FD41EC180B4648B0EE490AF0EE7E
:10231000690A0521784400F08BF853EC192B51EC35
:10232000100B01F0A3FD41EC100B51EC180B53EC1A
:10233000102B002C0EDA01F097FA9DED061B53ECE2
:10234000112B01F093FD9DED061B53EC112B01F0B9
:102350008BFE35E001F088FA9DED061B53EC112B46
:1023600001F084FD41EC100B2F48784400EBC400D1
:1023700090ED001B51EC100B53EC112B01F080FE83
:102380009DED061B53EC112B01F07AFE41EC100B76
:102390002648784400EBC40090ED001B51EC100B74
:1023A00053EC112B01F060FE41EC100B002DA2BF8D
:1023B000BDEC068B02B070BD51EC100B01F048FA79
:1023C00041EC100B01E70000000010440000F07F1A
:1023D000182D4454FB21F93F182D4454FB21F9BF1B
:1023E0000000DC3F0000203E0000F33F0000000042
:1023F000000000000000F03F0000E63F0000000089
:1024000000000000000000400080034000000000C9
:10241000000000000000F83F000000000000F0BFD6
:1024200042200000F81F0000821F00003A1F000039
:1024300070B504462DED028B4D1E00EBC500B0EECD
:10244000408AF0EE608A90ED000B35F0060017D060
:1024500053EC182B51EC100B01F008FD41EC100B64
:102460006D1E04EBC50090ED001B51EC100B53ECFE
:10247000112B01F0F9F941EC100B35F00600E7D112
:10248000022D36D0042D1CD0062D1CBFBDEC028BB6
:1024900070BD53EC182B51EC100B01F0E7FC94EDE0
:1024A0000A1B53EC112B01F0DFF953EC182B01F050
:1024B000DDFC94ED081B53EC112B01F0D5F941EC38
:1024C000100B53EC182B51EC100B01F0CFFC94EDDA
:1024D000061B53EC112B01F0C7F953EC182B01F03C
:1024E000C5FC94ED040B53EC102B01F0BDF941EC4D
:1024F000100B53EC182B51EC100B01F0B7FC94EDC2
:10250000021B53EC112B01F0AFF953EC182B01F027
:10251000ADFC94ED001B53EC112B01F0A5F9BDECC3
:10252000028B41EC100B70BD10B553EC102B51EC2D
:10253000100B01F099F941EC100B10BD00000000E8
:102540009FED050B10B553EC102B51EC100B01F067
:102550008DFC41EC100B10BD0000000000000010CD
:1025600010B5002A06DA22F00042D21D22F007033D
:10257000102203E0D21C22F003030C2213B19C189A
:102580008C4201D9012010BD024401448360C0E99E
:102590000021C91AD018884202D810600246F9E713
:1025A0000020106010BD000008480068C0010BD575
:1025B00007480068C00707D0054880380068002831
:1025C00002DA04490120087070470000FCED00E0C9
:1025D000800E00E0280000204FF06042D36F002BF7
:1025E000FCD0036BD367D36F002BFCD0C07840EADC
:1025F0000120A2F87C0070474FF06041CA6F002AAA
:10260000FCD081F87C00704782B0CDE9000121F058
:10261000004001909DED000B02B051EC100B704793
:102620000EB5802200B109B110460AE001780129F7
:10263000FAD101A900F020F8042801D0002000E020
:102640001020DDE9011203B000BD70B50D46040095
:1026500003D012B92078012801D0802070BD204617
:1026600000F092FA28B12946204600F030F8002008
:1026700070BD812070BD000010B50446808900281F
:1026800024D0608904EB800000690860606840B174
:102690006078022805D10021204600F071FC00F08E
:1026A0005FFC04F10C0000BFD0E85F1F491E8AB236
:1026B000C0E8512F0029F7D16089401C80B26081A9
:1026C000E189884201D100206081042010BD10B54D
:1026D00000F056FCBDE8104000F042BCEFF305806E
:1026E00008B182207047EFF31480C00703D0DFF8F1
:1026F0000CC000DF704700F085BF00000536000801
:1027000088B0EFF3058010B1822008B07047EFF376
:10271000148010F00301134806D001291BD00229B0
:1027200011D0032919D113E008A981F30988007891
:10273000C0070BD05FF0020080F31488BFF34F8F07
:10274000BFF36F8F09E00078C00706D10320F3E7DD
:102750000078C00701D0FF20D7E7DFF80CC000DF0A
:10276000D3E70000ED45000875360008EFF3058259
:102770000AB1FFF755BFDFF808C000DF704700005F
:10278000E1360008EFF305820AB100207047EFF34D
:102790001482D20702D1044A52781AB1DFF80CC071
:1027A00000DF704700F0BABF040000201D370008AA
:1027B000DFF80CC000DFDFF80CC000DFFEE7000030
:1027C00089370008A5370008DFF804C000DF70472C
:1027D000DD370008094C4FF0FF3529462068FFF728
:1027E000C5FF02460846102AF7D1FFF7EDFF002883
:1027F000F3D0024608469047EFE70000800800202B
:10280000074801684FF0E020416100218161072104
:1028100001610448016841F07F4101604017704741
:102820002846000820ED00E0704750E8001F31B155
:102830000B6840E80032002AF7D108467047BFF322
:102840002F8FFAE710B568B161B10B3121F00302A7
:10285000016844680B1A1B1B934205D2084609689D
:102860000029F5D1002010BD210007D021180368F0
:10287000C1E90032016001F1080010BD426008307A
:1028800010BD000070B50D46002812D04FF6FF7144
:10289000084C884204D222680146104600F09EFB94
:1028A00020684570044800F0D9F8BDE8704000F099
:1028B00067BC70BD0C000020640000200F4810B5FC
:1028C0000D4942680E480B680068934204D00A60C4
:1028D000CB88421E1A448A808A8880B282420AD1FA
:1028E00000200860054800F0B9F80146BDE8104036
:1028F000024800F097BB10BD2000002064000020BB
:102900001C00002070B5194DE86800282CD0A88A5A
:10291000401EA882002621E0A06838B161684160AD
:10292000606810B1A16881606660A6600F482146AA
:10293000183800F077FBA08AA8826078042804D1B8
:102940000B49E08A09880844A08201206070E06891
:10295000E860E06808B10561E6602661A88A0028A1
:1029600002D1EC68002CD7D170BD00007C000020A3
:102970001C00002070B504000FD00D4DA178012679
:102980002868827891420CD900F068FB286846706C
:102990002046BDE8704000F0F3BB064800F05EF84A
:1029A000F7E766702146BDE87040024800F03ABB88
:1029B0000C0000206400002010B50446008B084382
:1029C00020836278618B062A18D0052A19D1084223
:1029D00017D001EA0002628388432083204600F07A
:1029E00077FB01206070628B0821204600F068FBB5
:1029F0002146BDE81040034800F014BB31EA000254
:102A0000EAD010BD64000020814202D342688A42AD
:102A100001D80120704702680A60BFF35F8F50E859
:102A2000003F0A689A42F6D140E80012002AF2D12B
:102A30000020704768B161B10022083902E0024607
:102A4000006830B18842FAD12AB1006810600020D5
:102A500070470120704700214160F8E70146406857
:102A600042684A600B780022022B05D0012B03D06C
:102A7000032B01D04260704743680BB199604260FC
:102A800082607047810700D00020704770B504460F
:102A900000201546207001226270A17084F8241075
:102AA0006060A060E06020612062A082E0822083FC
:102AB000608384F82500E08C18B90548FFF7B5FE5F
:102AC000E06229462046BDE8704000F01DB80000D5
:102AD0004802002008B1082901D2012070470144B2
:102AE000091F002201600A60426010467047000022
:102AF00003480021016003490988C1807047000034
:102B000020000020F845000870B5C28C1C4D9308C9
:102B100002D12A88C2F38D03C26A02EB83025407F2
:102B200000D5121F4FF0807442E90214002426469B
:102B3000B2F1400242F82460641C0E2CFAD3C4693E
:102B40001462826201632968C90014D5112B12D95D
:102B50004FF0FF31103B11EB53014FF0CC3305D058
:102B600042F8043C42F8083D491EF9D1C16A121FDF
:102B70008A4200D91360C06A0249016070BD00003A
:102B800000460008A52E5AE2C1898089081A7047BC
:102B900001220270002242708270426002814281F2
:102BA000103982818908C181704700002DE9F04108
:102BB000044640680E464FF0000804F10C05E8B3E7
:102BC0006078012701283ED0022813D003285CD169
:102BD0000846FFF72AFE050057D02046FFF73EFFC4
:102BE0000446294600F066FA6770204600F070FA45
:102BF000214621E02046FFF731FF0646002100F084
:102C000059FA2189F06904EB81010861D5E85F0F69
:102C1000401C81B2C5E8501F0028F7D12089401C14
:102C200080B22081E189884201D1A4F808807770C0
:102C3000304600F04DFA3146174800E00CE0BDE8A0
:102C4000F04100F0EFB92046FFF708FF0446324696
:102C5000102100F035FAC7E7A089E189884216D231
:102C6000208904EB80000661D5E85F0F401C81B22B
:102C7000C5E8501F0028F7D12089401C80B2208170
:102C8000E189884201D1A4F80880BDE8F081BDE85F
:102C9000F0410320FFF72EBA6400002070B504460F
:102CA000808915460026C0B3608904EB8000006966
:102CB00008606089401C80B26081E189884200D14F
:102CC0006681606810B1607802280BD014F10C04A2
:102CD000D4E85F0F401E81B2C4E8501F0028F7D12E
:102CE000002070BD2046FFF7B9FE0546002100F028
:102CF000E1F92189E86904EB810108612089401C20
:102D000080B22081E189884200D12681284600F0E6
:102D1000DFF92846FFF72EFEE2E7FFE73DB10B485B
:102D2000626801682AB1204600F07CF908E00120C1
:102D300070BD616001684E60006884600120607051
:102D400008212846FFF79EFDF1E700000C00002057
:102D5000002814D0411C13D00C4A4FF6FE7190424B
:102D60000CD800EB4002C2EBC0120948036803EB29
:102D7000C202521EB2FBF3F0884204D908467047E3
:102D80004FF6FF70704780B27047000000093D00A9
:102D9000E84500082DE9F0410446408820B1314D56
:102DA000A1682A68914202D0FF20BDE8F081401E50
:102DB0000004000C608053D12968086AA04209D140
:102DC000E068086208E0C268A24202D1E268C2601C
:102DD00002E010460028F6D191F824000A6A06E0C5
:102DE00053681BB19B78834200D91846D268002AE9
:102DF000F6D18870DFF870806168012611B3204633
:102E0000FFF72CFE0746002100F054F9384600F089
:102E10005FF96680A760386AE0603C622968D8F88C
:102E200004008A788078824201D3384616E00E4842
:102E300000F0F8F839460C4800F0F4F828684670BD
:102E40007E700AE0D8F804108A782968824207D98F
:102E5000054800F0E7F8286846700020FFF78AFD73
:102E60000020A2E70C0000206400002070B51C4D7B
:102E70000E4604464188286861B1A268824210D19A
:102E8000A1F57F40FF3803D0491C6180002070BD50
:102E9000FF2070BDA060016AE160046201206080D3
:102EA000F4E776B191788078814203D29070A0687F
:102EB00000F0DEF8606830B12046296800F0B2F812
:102EC00008E0012070BD2868606029680020486023
:102ED0002868846009213046FFF7D4FCF1E7000040
:102EE0000C00002070B51B48012102685170006879
:102EF00000F0B4F8184D6C7818E000BF05EBC40181
:102F000048680278EAB1012A20D000F00DF9E8788B
:102F1000641C844200D100240F48801CD0E84F1F5D
:102F2000491EC9B2C0E8421F002AF7D1A87800287C
:102F3000E4D16C700948FFF791FDBDE8704000F0E6
:102F40001FB9098989B2FFF737FDE0E78968FFF704
:102F50002DFEDCE70C000020A40800206400002007
:102F60000548017811B101214170704703494FF0C4
:102F700080500860704700001400002004ED00E05D
:102F8000F0B4154DAB1CEE784FEA0507D3E84F2F90
:102F9000B24202D1BFF32F8F11E0521CD4B2C3E86A
:102FA000424F002AF2D100BFD7E84F2F541CB44241
:102FB00000D10024E4B2C7E8434F002BF4D1EB78F2
:102FC000934205D905EBC202C2E90101F0BC70478A
:102FD000F0BC0220FFF78EB8A4080020104A10B5FC
:102FE000D368ABB113469B8A03E08CB12246A48A16
:102FF0002344D4688B42F8D3C460D0600261C468B3
:1030000004B12061591A8182908A401A908210BDC1
:103010000024C460D060C91A02619182848210BD0C
:103020007C00002030B502780023022A03D0012A58
:1030300001D0032A00D101238C7800E010464268B9
:1030400012B19578A542F9D24A6041601BB102B134
:103050009160886030BD0020FBE7000003494A68AA
:1030600042600022826048607047000064000020D7
:1030700010B5836804462BB9607801280ED1084B3F
:1030800003E09B6818780028FBD0204600F034F855
:103090002146BDE810401846FFF7C4BF10BD000030
:1030A0006400002090F82510806A09B160307047F4
:1030B0002030704710B50C46FFF7F4FF046010BDD8
:1030C00070B515460C46FFF7EDFFC0E9004570BD31
:1030D00010B5016900290ED0C268CA60C368002219
:1030E0003BB18B8A848A23448B82C3681961C26096
:1030F00000E08A82026110BD816839B142684A608D
:103100004168002901D0806888607047054906E061
:103110004A68824202D140684860704711460029DF
:10312000F6D170476400002010B5416881B1FFF707
:1031300095FC0446FFF7CCFF012060700146204655
:10314000FFF7B8FF2146BDE810400348FFF76ABF0C
:103150004188491C418010BD640000200648006879
:10316000D0E90A10814203D300680449884202D0A2
:103170000120FEF7BFBF70470C000020A52E5AE2C9
:103180000749022248604270064A1278002A05D098
:1031900006C98A4202D0C078FFF72EBA70470000F5
:1031A0000C0000202800002070B5FFF7FDF900207A
:1031B0000446204A204902E042F82040401C0B8887
:1031C0009842F9D31D48342201881D48FFF7C8F9F9
:1031D0001C48008880B240F000421B4801681B4830
:1031E000FFF7BEF91A48082201881A480068FFF75D
:1031F000B7F9194DFF20194AE870EC8400212846E0
:10320000FFF744FC16480421017044601548017022
:10321000C460046184821448154905600220687006
:103220001248047044700978C170BDE87040FFF71F
:103230005FBC000088080020EE450008E445000857
:103240000807002000460008E0450008480200206A
:10325000E645000840020020300000201D21000843
:10326000640000207C0000200C000020A408002046
:10327000EC4500081B4810B5016841F47F0101606E
:1032800000684FF07F4101EA00201649C04314391D
:10329000B0FA80F00968C0F10800C1F30221814250
:1032A00000D3481C0F49091F0B686FF080728240E1
:1032B00063F317020A60FFF7A3FA0B4900280860BE
:1032C0000EDB00F1E021FF2281F8002400F01F0254
:1032D000012191404009800000F1E020C0F8001178
:1032E00010BD000020ED00E0180000200C4810B5D3
:1032F0000268012151700068FFF7B0FEFFF7DEFAA7
:1033000008480168491C0160FFF7FCFA00F072FAF6
:103310000548FFF7A3FBBDE81040FFF731BF0000F1
:103320000C0000201C00002064000020002805D0B4
:10333000810702D10178002900D0002070470000E9
:1033400030B50B4C0023626805E095688D4204D8C7
:1033500013461268491B002AF7D10260816012B13E
:103360009568691A91600BB1186030BD606030BD1E
:10337000040000202DE9F0411E46174680460D4608
:1033800011F0FF0F00D14D1C1848FFF74EFA041E34
:1033900016D0280AE762E084E9B242462046E66198
:1033A000FFF774FB01251248124905E000EB850286
:1033B00052F8042C32B16D1C0A889542F6D90020CF
:1033C000BDE8F081002DFAD000EB850040F8044CF8
:1033D0000948E570007818B101212046FFF7FCF894
:1033E0002046FFF7C7FA2846EAE700000807002052
:1033F00088080020EE450008280000202DE9F05F35
:10340000584DDFF85891DFF8588129684FF0010ACC
:10341000002618B1CA78AB46824243D14E70FCF701
:1034200028FF29688862FFF799FE2868046A1FE070
:103430006068C0B12046FFF711FB07460021FFF787
:1034400039FE3846FFF744FE87F801A03946464862
:10345000FFF7E8FDE168A4F802A0A760386AE06021
:103460003C620C4604E0E0686680A660E6600446C4
:10347000002CDDD12868C27808EB820141F8046C89
:10348000C16A3A48FFF7C0FA2868C66299F8001086
:1034900011B10021FFF7A0F835482968FFF7B4FA09
:1034A0002E6056E03349098888420CD808EB800822
:1034B00058F8045C3DB12846FFF71EFE2846FFF78A
:1034C00007FE2C6A22E0FF20BDE8F09F6068C0B1D3
:1034D0002046FFF7C3FA07460021FFF7EBFD384609
:1034E000FFF7F6FD87F801A039461F48FFF79AFD60
:1034F000E168A4F802A0A760386AE0603C620C466C
:1035000004E0E0686680A660E6600446002CDDD139
:1035100048F8046C1548E96AFFF776FAEE6299F804
:10352000000018B100212846FFF756F82946104838
:10353000FFF76AFA0C48DBF8001040688B78827855
:103540009A4209D981F801A00748DBF80010FFF77B
:1035500069FD0020FFF70EFA0020B5E728000020E3
:10356000880800200C000020640000204802002091
:1035700008070020EE45000870B51A4D80B11A4AC0
:10358000128890421FD8194A02EB800050F8044C70
:10359000CCB1A17084F824102868A04205D014E0B2
:1035A00028688170286880F8241011484068807865
:1035B000884215D90E482968FFF734FD2968012093
:1035C000487000200AE0FF2070BD2046FFF750FD44
:1035D0006078012804D10648FFF740FAFFF7CAF9DE
:1035E000002070BD0C000020EE4500088808002077
:1035F0006400002002480068002800D0C0787047AE
:103600000C00002010B5134C207860B91248400718
:1036100005D1124801681048FFF75CFA08B185200F
:1036200010BDFFF7C1FD0E49FF20096888702078A2
:1036300058B900210B4800F041F80B4908600021FF
:103640000A4800F06BF80A49086001202070002049
:10365000607010BD0400002048090020FC450008EF
:103660000C000020F04500088008002014460008E7
:103670008408002070B50F4D687808B1002070BD37
:103680000D4C206890F824100020FFF775FF20688B
:10369000C178FF2903D1816A203181F309886168EB
:1036A00011B9606000202060FFF7E4FD0120687020
:1036B000E4E70000040000200C00002010B5040026
:1036C00005D0216819B1606808B102780AB10020FC
:1036D00010BD8900103189B2FFF75AFA606810BD39
:1036E0003EB504000D464FF0800012D0217801292C
:1036F0000FD12846FFF72CFB0246204601A9FFF711
:10370000CDFA012801D0102003E00DB1402000E0E7
:103710000020DDE9011203B030BD000070B50E4697
:10372000040029D0206838B3606810F1030F23DB50
:10373000032821DCE16829B11048FFF783F8050070
:103740001AD000E000256068E168001D40EA012110
:1037500033462A462068FFF70DFE40B1084901EBC9
:103760008000084950F8040C826A516370BD1DB195
:1037700029460248FFF75EF9002070BD4809002085
:1037800088080020B127000810B5FFF733FF002894
:1037900004D0034901EB800050F8040C10BD000078
:1037A0008808002010B5FFF7C1FD18B1C18C19B110
:1037B000C46A02E0802010BD0024C078FFF71EFE1E
:1037C000FF2806D01CB121460348FFF733F900203B
:1037D00010BD812010BD00004809002010B5FFF782
:1037E00051F920B141690A680169104610BD0020F5
:1037F000014610BD2DE9F041134E7468002C1CD019
:10380000A068124F401E4FF00108A06012E025464C
:1038100024687460002229463868FEF716FF10B14C
:103820000420FEF767FC6879012808D085F8048039
:10383000002C02D0A0680028E9D0BDE8F08128461D
:10384000E968FFF77DFDF3E7040000208008002011
:1038500081F00041704780F00040704721F0004146
:10386000704720F00040704710B591EA030F48BF41
:1038700083F0004300F10C84841A71EB030C05D231
:10388000121943EB0C03001B61EB0C014FEA1154BE
:10389000A4EB135CDFF81CE11EEA430F18BF9EEA9D
:1038A000445F00F0748021EA045123EA0E0343F4DC
:1038B0008013DCF1200E32D322FA0CFE10EB0E0046
:1038C00023FA0CFE41EB0E01CCF1200E03FA0EFEA2
:1038D00010EB0E00CCF1200E51F10001B1F5801F6C
:1038E00032D201EB045112FA0EF2BDE8104058BF7B
:1038F0007047401C38BF5FEA420218BF704700287B
:1039000014BF20F0010041F100014FEA410313F51B
:10391000001F38BF7047A1F1C04100F09FBB012AD2
:1039200043EB0302ACF1200CDCF11F0E32BF4FF071
:10393000000E23FA0CF310EB030041EB0451B4EB3F
:10394000115FD0D0A1EB045101F58011490801EBC2
:1039500004515FEA30000ED350F1000038BF12FA74
:103960000EFE08D1BDE81040C9E7401C38BF5FEA31
:103970004202CAD1C3E7BDE810404FEA410313F544
:10398000001F38BF7047A1F1C04100F067BB9EEA3D
:10399000445F08D011EA5E0FBDE8104004BF01F09B
:1039A000004100207047BDE8104070B500F008FBF2
:1039B00064FBBE3E0000E0FF491058BFC1F140412A
:1039C0005B1058BFC3F140438B42EFF30080704758
:1039D0002DE9C04130B4DFF8A4C23CEA111418BF8D
:1039E0003CEA131400F0ED801CEA111481EA03058F
:1039F00044EAD57418BF1CEA131500F0C880A4EB84
:103A0000050404F17F7404F500344FF0004545EAE5
:103A1000C12145EAC32341EA505143EA52534FEAD8
:103A2000C0204FEAC222994208BF904200F09D8018
:103A30004FEA13650FF24416765D4FEA134506FB15
:103A400005F7C7F1807706FB07F74FEAD737A7FBE3
:103A500003687642A7FB06CEC8F5803838BFA8F1C8
:103A6000010807FB08E6A6FB028C4FF0000EE6FB00
:103A700003CEDCF1000CCEF1004E38BFAEF1010EEA
:103A8000A6FB0C584FF00007E6FB0E87A1FB08C60B
:103A9000A0FB07CE16EB0E064FF0000545F1000522
:103AA000E1FB076515F1E04E7EBFA4F580345FEAC7
:103AB00046066D4116F1800745F100054FEA1727CC
:103AC00047EA05674FEA15254FEA0666A6F1DE4686
:103AD000B6F1805F20D9384605EBC47124F0010CA3
:103AE00001EB0C11BCF1FE6F02D8F0BCBDE8008107
:103AF00024425CBF01F5801E9EEAC47F02D4F0BC64
:103B0000BDE80081244200F13980A1F1C041F0BC40
:103B1000BDE8004100F0A2BA4FEAD02040EA41508F
:103B20004FEAD1214FEAD22242EA43524FEAD3234D
:103B3000A7FB028607FB036605FB02661EEA0E0F63
:103B400058BFA6EB0056B6EB00564FEA520E4EEAAF
:103B5000C37E18EB0E0E56EB530EBCD518EB0208C5
:103B60005E417F1C55F10005B5E74FF480154FF01D
:103B700000074FF000064FF00008ACE701F1C0412C
:103B800001F000414FF00000F0BCBDE800810CEAFC
:103B9000131511EA0C1F00D00CE013EA0C1F00F003
:103BA00026804FF0000081EA030101F00041F0BCE3
:103BB000BDE80081F0BCBDE8004181EA030100F0EE
:103BC0004DBAF0BCBDE8004170B500F0F9F900BF96
:103BD000097EFC3E00F007B84FF0000081EA0301C7
:103BE00001F00041704781EA030100F037BAF0BCF0
:103BF000BDE8004122494FF000007047FFFDFBF98E
:103C0000F7F5F4F2F0EEEDEBE9E8E6E4E3E1E0DE0F
:103C1000DDDBDAD8D7D5D4D3D1D0CFCDCCCBCAC881
:103C2000C7C6C5C4C2C1C0BFBEBDBCBBBAB9B8B7A8
:103C3000B6B5B4B3B2B1B0AFAEADACABAAA9A8A89B
:103C4000A7A6A5A4A3A3A2A1A09F9F9E9D9C9C9B69
:103C50009A99999897979695959493939291919014
:103C60008F8F8E8E8D8C8C8B8B8A898988888787A5
:103C70008685858484838382828181800000FF071A
:103C80000000F87F51EA030C17D41CF5801F58BFC1
:103C9000BCF5801F00F10680994218BF704708BF2D
:103CA0009042704707D711F5801F58BF13F5801F4A
:103CB00019D499427047894270471CF5801F08D576
:103CC000BCF5801FF7D58B4218BF704708BF8242F2
:103CD00070474FF4001C1CEB410F38BF1CEB430F27
:103CE00001D28B42704770B500F06AF99224490006
:103CF0004FF000514FF08053FFF75EBE4FEA115373
:103D0000A3F58063D3F11E03A8BFD3F1200C08DB19
:103D10004FF0004242EAC12252EA505232FA03F016
:103D2000704709420BD4102BC4BF0020704703F525
:103D3000787CBCF1FF3F05D04FF0FF3070474FF06B
:103D40000000704770B500F03BF900BF4992248035
:103D500000207047F0E7B0FA80F310FA03F10AD0C0
:103D6000C3F11D0303F580634FEA03524FEA41504C
:103D700002EBD12170474FF00000704751EA030C6D
:103D800017D41CF5801F58BFBCF5801F00F10680BA
:103D9000994218BF704708BF9042704707D711F586
:103DA000801F58BF13F5801F19D49942704789426C
:103DB00070471CF5801F08D5BCF5801FF7D58B42D6
:103DC00018BF704708BF824270474FF4001C1CEBBD
:103DD000410F38BF1CEB430F01D28B42704770B5C7
:103DE00000F0EEF8922449004FF080514FF000535C
:103DF000FFF7E2BD51EA030C17D41CF5801F58BF32
:103E0000BCF5801F00F10680994218BF704708BFBB
:103E10009042704707D711F5801F58BF13F5801FD8
:103E200019D499427047894270471CF5801F08D504
:103E3000BCF5801FF7D58B4218BF704708BF824280
:103E400070474FF4001C1CEB410F38BF1CEB430FB5
:103E500001D28B42704770B500F0B2F8922449004D
:103E60004FF000514FF08053FFF7A6BD70B5DFF85B
:103E700048C11CEA111E1EBF1CEA13159EEA0C0F56
:103E800095EA0C0F00F06F8081EA03044EEAD47EBD
:103E9000AE4421EA4C1123EA4C1341F4801143F45F
:103EA0008013AEF17F7EA1FB024CA0FB03653619A7
:103EB00055EB0C05A1FB034C4CF10003A0FB021CCD
:103EC00016EB0C06654153F10003094218BF46F09A
:103ED000010613F4007F0BD14FEA03314FEA05309E
:103EE00041EA155140EA165034036FF003020AE02C
:103EF0004FEAC3214FEAC52041EA555140EA5650E6
:103F0000F4026FF0020202EB2E4201EB025585EA49
:103F1000CE710AD05FEA440C18BF24F0004450F17F
:103F2000000041F1000120EAD47040F2FE7C6245BD
:103F300000D270BDA84214BF4FF080444FF04044FF
:103F4000002E08BF0024BEF1806FA8BFA1F1C041C0
:103F5000BDE8704080F2828001F1C04101F0004173
:103F60004FF0000070470CEA13159EEA0C0F18BFC3
:103F700095EA0C0F06D081EA030E4FF000000EF018
:103F8000004170BD00F01CF88900013E00F007B848
:103F900000F009B84FEA430C5FEA5C5C08D081EAA4
:103FA000030100F05BB84FEA410C5FEA5C5CF6D1BC
:103FB00002494FF0000070470000FF070000F87F43
:103FC0000EF1020E2EF0030E5EF8046B364205D49D
:103FD000012A43EB030515F5001F12D8012841EB18
:103FE000010C1CF5001F0CD80ED14FEAD17C0CEB54
:103FF0004C0C0CF1020C15F5001F08BF4CEBD37CE8
:1040000004E04FF0080C01E04FEAD37C0CEB4C05C8
:1040100026FA05F606F00706B6F1040C06D20EEBFA
:10402000860CBDE870404CF0010C6047DFE80CF0F6
:10403000090B02024FF00041A1F500214FF00000F2
:1040400070BD19461046012851EB010418BFD4F584
:10405000001484BF002001F0004170BD0808A0F5E5
:1040600000114FEA3101704710B591EA030F81F05A
:1040700000413FF501AC83F0004300F009B80000B7
:1040800010B591EA030F48BF83F000433FF5F4AB4E
:10409000841A71EB030C07D28CF0004C121943EB1D
:1040A0000C03001B61EB0C014FEA1154A4EB135CF1
:1040B000DFF8A4E11EEA430F18BF9EEA445F00F058
:1040C000B48021EA045123EA6E035242C3EB6E032B
:1040D00038BF5B1EDCF1200E25D322FA0CFE10EB5C
:1040E0000E0043FA0CFE41EB0E01CCF1200E03FA58
:1040F0000EFE10EB0E00CCF1200E51F1000129D480
:1041000001EB045112FA0EF2BDE8104058BF70479F
:10411000401C1CBFB2F1004F704700280CBF491C67
:1041200020F00100704712EB020E43EB030218BFB0
:104130004FF0010E4EEA4202ACF1200CDCF11E0EF3
:1041400056D943FA0CFE10EB0E00CCF11E0E51F1C5
:10415000FF31D5D50EF1010E12FA0EFE404141EBB2
:10416000010101EB445C5FEA5C5C10D901EB045196
:1041700010EBDE7038BFBEF1004FBDE8104018BF35
:10418000704700280CBF491C20F00100704734D252
:104190004FEAD42C24F4006411F500111BD0B1FABD
:1041A00081F20B3AA41AA41ED2F12003914030FAF6
:1041B00003F31943904001EBCC7101EB0451002C47
:1041C000BDE81040A8BF704701F1C04101F00041B7
:1041D0004FF000007047B0FA80F310FA03F102D1FB
:1041E000BDE810407047E41A173C4805C90AE2E7E9
:1041F00001EB0451BDE81040704749104FEA300010
:1042000001EB0451BDE8104002E04FF0000170479F
:104210004A0008BF0042F8D0B2F5001F28BF70471F
:1042200001F000414FF0000070479EEA445F07D064
:1042300011EA5E0FBDE8104004BF00210020704766
:10424000BDE8104070B5FFF7BBFE00BF40DFF63E93
:10425000104683F0004170470000E0FF10B5FFF703
:1042600011FD0CBF0120002010BD10B5FFF70AFDA5
:1042700014BF0120002010BD10B5FFF77FFD8CBFDB
:104280000120002010BD10B5FFF778FD2CBF0120E4
:10429000002010BD10B5FFF7ADFD94BF0120002038
:1042A00010BD10B5FFF7A6FD34BF0120002010BDE2
:1042B000F1EE100A4FF6FF71C0F2C03120EA0100A2
:1042C00040F04070E1EE100A70470000000000006E
:1042D0004FBB610567ACDD3F182D4454FB21E93F1E
:1042E0009BF681D20B73EF3F182D4454FB21F93F0D
:1042F000E2652F227F2B7A3C075C143326A6813C93
:10430000BDCBF07A8807703C075C143326A6913C3D
:10431000C4EB98999999C9BF711623FEC671BCBFA9
:104320006D9A74AFF2B0B3BF9AFDDE522DDEADBF11
:104330002F6C6A2C44B4A2BF0D5555555555D53F29
:10434000FF8300922449C23F6E204CC5CD45B73F44
:10435000513DD0A0660DB13FEB0D76244B7BA93FBC
:1043600011DA22E33AAD903F0000000000000000A7
:1043700001020304060708090200010052000400BC
:10438000000000000000005F0000000700070014AC
:104390007F147F14242E7B2A12231308646236496B
:1043A0005620500008070300001C22410000412253
:1043B0001C0014083E081408083E080800807030ED
:1043C00000080808080800606000002010080402C7
:1043D0003E5149453E00427F4000426151494621DD
:1043E00041454B311814127F1027454545393C4A49
:1043F0004949300171090503364949493606494999
:10440000291E0036360000005636000008142241EE
:104410000014141414140041221408020151090656
:10442000324979413E7E1111117E7F494949363E1C
:10443000414141227F4141413E7F494949417F09F4
:104440000909013E414151327F0808087F00417F40
:1044500041002040413F017F081422417F404040FD
:10446000407F020C027F7F0408107F3E4141413EA5
:104470007F090909063E4151215E7F0919294646F7
:104480004949493101017F01013F4040403F1F2020
:1044900040201F3F4038403F6314081463030478F2
:1044A00004036151494543007F4141000204081063
:1044B000200041417F00040201020440404040408E
:1044C000000102040020545454787F484444383892
:1044D00044444420384444487F3854545418087E97
:1044E000090102081454543C7F0804047800447DF8
:1044F00040002040443D007F1028440000417F40A0
:10450000007C041804787C08040478384444443857
:104510007C14141408081414187C7C08040408483B
:1045200054545420043F4440203C4040207C1C20F4
:1045300040201C3C4030403C44281028440C505043
:10454000503C4464544C44000836410000007F0055
:1045500000004136080008082A1C0800000000007E
:104560000000000000000000511300084113000883
:104570000000000000000000E1150008C11500085F
:104580000000000000000000AD1C0008891C0008AD
:10459000D9160008B51D0008A916000891160008D4
:1045A0007D160008C91C00084D1D00086D1D00087F
:1045B0000000000000000000ED1D0008E11D0008E3
:1045C0009D1D0008B51D0008911D0008891D0008EB
:1045D000811D0008F51D0008191E0008251E000891
:1045E000C004000078010000E8030000100107008B
:1045F000040000002809002005000100B0010000AF
:10460000C8000201CD1F00080000000001000000EA
:10461000C8000000D52700080200000001000000CB
:10462000C800000000000000DF2E00002020202035
:104630002052454C4F4A2020202000202020202DB1
:104640002D2D2D2D2D2D2020200020202020393A09
:1046500030333A3131202020005F5F5F5F5F5F5F62
:104660005F5F5F5F5F5F5F00636F6E66202020208B
:10467000202070726F670000A8460008000000202C
:1046800030000000F8010008D84600083000002083
:10469000C81000001802000815C9FFFF21C9FFFF5C
:1046A00015C9FFFF2DC9FFFF010000000000000039
:1046B00000000000000000000000000000000000FA
:1046C00000000000000000000000000000000000EA
:0846D000000000000024F400CA
:0400000508000405E6
:00000001FF
