:020000040800F2
:1000000040860020DD040008E5040008E70400083D
:10001000E9040008EB040008ED04000800000000FB
:10002000000000000000000000000000AD03000818
:10003000F10400080000000065040008C90400087D
:10004000F7040008F7040008F7040008F7040008A4
:10005000F7040008F7040008152E0008C92F00084F
:10006000F92F00082930000859300008F70400086B
:10007000F7040008F7040008F7040008F704000874
:10008000F7040008F7040008F70400080000000067
:10009000000000000000000000000000893000089F
:1000A00065360008C536000895360008F7040008D4
:1000B000F53600082537000855370008CD3100080F
:1000C000F7040008B1320008F7040008F70400083C
:1000D000F7040008B53700081538000800000000D4
:1000E000452E000879340008F704000800000000DD
:1000F000000000000000000000000000F7040008FD
:1001000000000000F704000885370008F704000825
:1001100000000000000000000000000000000000DF
:10012000F7040008F7040008F7040008F7040008C3
:10013000F7040008000000000000000000000000BC
:10014000000000000000000000000000F7040008AC
:10015000F7040008F7040008F704000875380008E1
:1001600095330008F70400080000000000000000BC
:10017000000000000000000000000000000000007F
:1001800000000000F704000800000000000000006C
:10019000F704000800F002F800F0C1F814A696E891
:1001A000000CB244B344DA4501D100F0B8F8BAE823
:1001B0000F000FA696E83000A5EB040504EB060738
:1001C000AAEB0704A7F101074FEA15154FEA34140B
:1001D000A4F10104AC4201D300F0A1F813F0010F27
:1001E00018BFFB1A43F0010300F001F8DBE71847E2
:1001F000DCA30000FCA300000A4410F8014B14F03B
:100200000F0508BF10F8015B240908BF10F8014B67
:100210006D1E05D010F8013B6D1E01F8013BF9D1B0
:10022000641E03D0641E01F8015BFBD19142E4D34C
:1002300070470000704700000023002400250026BE
:10024000103A28BF78C1FBD8520728BF30C148BF39
:100250000B6070476E2900F0F982702900F03B8432
:10026000662909F0A485652909F0A185672909F0A7
:100270009E85612909F09D8503681B0A28BF41F00E
:100280008001692900F0A682642900F0A382752903
:1002900000F0A0826F2900F0C983782900F007845C
:1002A000E92900F06383E42900F06083F52900F078
:1002B0005D83EF2900F0C683F82900F00684036807
:1002C000DB0928BF41F08001632901F0E58473292F
:1002D00001F0EA84E32901F0F584F32901F0FA84BE
:1002E000002070471FB509F04DFD9DE8030001F0A7
:1002F0005DF801F039F804000020002108F076FFD5
:10030000401C60600020002108F086FFE06000F0E3
:1003100045F91FBD10B5002002F077F910BD02F0BD
:1003200095F91146FFF7DEFF0FB406F053FC0FBC42
:1003300006F05EFC02F09EFA03B4FFF7EBFF03BC8D
:1003400002F0E8FA80F309887047EFF309807047FC
:10035000684680F3098804480078C00714BF02206B
:10036000032080F314887047DDA40008DFF818C06C
:10037000EFF305831B0618BF6047EFF31483DB0719
:1003800008BF604700DF70478B800008DFF818C0A7
:10039000EFF305831B0618BF6047EFF31483DB07F9
:1003A00008BF604700DF704709830008EFF309804A
:1003B000816911F8021CE1BB90E80F1010B5E0470D
:1003C000BDE81040EFF3098C8CE80700214B93E85F
:1003D0000600914208BF704741B91EF0100F16D1B8
:1003E0001D49086820F00100086010E01EF0100FA1
:1003F00006BF2CED108A0120002081F825002CE991
:10040000F00FC1F828C00CB408F030FB0CBC1A6027
:10041000D2F828C0BCE8F00F92F8250000280EBFE3
:100420006FF0020E6FF0120EBCEC108A8CF309888C
:10043000704710B5094A1268914209D8084C54F81F
:10044000214090E80F10A047EFF3098C8CE80F00D3
:1004500010BD00000C00002034EF00E00C76000816
:100460000C76000810B508F0C5F9BDE81040154B32
:1004700093E80600914208BF7047EFF3098C1EF025
:10048000100F06BF2CED108A0120002081F82500F6
:100490002CE9F00FC1F828C00CB408F0E7FA0CBC46
:1004A0001A60D2F828C0BCE8F00F92F825000028A6
:1004B0000EBF6FF0020E6FF0120EBCEC108A8CF3C0
:1004C000098870470C00002010B508F097FBCCE7B6
:1004D00010B507F0D9FD08F091FBC6E70948804741
:1004E00009480047FEE7FEE7FEE7FEE7FEE7FEE716
:1004F000FEE7FEE7FEE7FEE704480549054A064B2E
:10050000704700005136000895010008407E002029
:100510004086002040820020408200200048704732
:100520000C0300200FB41CB5084B06AA7B44694697
:100530000090059800F0A3F904460020694600F0F9
:10054000B1F920461CBC5DF814FB000075030000E7
:100550000FB400B58DB010A9099000910B904FF029
:10056000FF300A9000200C90064878440690064818
:1005700078446A4607900F9909A800F043FD0DB032
:100580005DF814FBB70A0000CF0A00000B460146D5
:10059000184600F0CDBE70477047704708487CB5DC
:1005A0007844009007487844009C0546019004E098
:1005B0002046016808448047241DAC42F8D17CBD28
:1005C00084A100008EA1000010B500F0CDFE001D3A
:1005D00010BD00BF198C000006F06EBA0844401E22
:1005E000491E884370470821001DF7E72DE9F041B7
:1005F00017460E460446FFF7F6FFA042054633D9DC
:10060000002F1CBF06F1080006F080FA304674681F
:10061000F4B12168A94217D305F1080291423CBF09
:100620006168416007D3626861194A602268521BA1
:100630000A6041602560002F1CBF06F1080006F02B
:10064000ADFA201DBDE8F08120466468002CE0D1A1
:100650002946304600F096FE0028D7D1002F1CBF57
:1006600006F1080006F09AFA0020BDE8F08110B506
:10067000044600F074FE01682046BDE810400122E7
:10068000B4E770B516460D46041F002808BF70BDBC
:10069000002E1CBF05F1080006F038FA2B465868FA
:1006A000002818BFA04238BF0346F8D31968CA18FB
:1006B000A24218BF5C6003D122681C461144196035
:1006C00021680A19824218BF606004D142686260E2
:1006D000006808442060002E1CBF05F1080006F0E9
:1006E0005DFA70BD10B5044600F039FE0168204681
:1006F000BDE810400122C4E710B5FFF76DFF0068A8
:1007000010BD10B50446FFF767FF046010BD70B55B
:10071000044685690068C10601D5302600E0202620
:10072000C00707D070BDD4E9012130469047206A48
:10073000401C20626D1EF6D570BD70B504468569FB
:100740000078C00707D170BDD4E90121202090476F
:10075000206A401C20626D1EF6D570BD09684A05EE
:1007600001D540B27047C905FCD500B27047096891
:100770004A0501D5C0B27047C905FCD580B27047A3
:1007800070B50C460546012A05D02878800600D5AC
:10079000EA69002302E0012305E05B1C934202D2D8
:1007A000E05C0028F9D1A869E618C01AA861286A97
:1007B000184428622846FFF7AAFF04E0D5E9012182
:1007C00014F8010B9047B442F8D32846FFF7B5FF61
:1007D00070BD00002DE9F04106460024106875291F
:1007E000314616A510D0FFF7B9FF002802DA4042C3
:1007F00013A507E031688A0701D512A502E0490771
:1008000004D511A5012401E0FFF7B1FF00210A2260
:1008100006F1240709E0B0FBF2FCB0FBF2F302FBA7
:100820001C00303078541846491C0028F3D1234668
:100830002A463046BDE8F04100F03EBE0000000010
:100840002D0000002B00000020000000116802684D
:10085000006A530501D508700AE0D30501D5088068
:1008600006E0130603D5C217C1E9000200E00860E4
:100870000120704701694A1C02610878704700B581
:100880008FB0CDE901310021059105497944CDE9C9
:1008900003101146684600F029F90FB000BD0000B2
:1008A000E5FFFFFF0A6802F8010B0A6070470000CD
:1008B0002DE9FF5F15468A460446DFF8AC80F84410
:1008C0000027D8E900103E46CDE9001010E03AF8C4
:1008D00016106A4602A801F074FE411C07D0217868
:1008E000890603D5E269391891420DD80744761C70
:1008F0002078800602D5E069B84205DDAE42E6DB2D
:100900003AF816000028E2D1A069C01BA061204679
:10091000FFF7FDFED8E90010CDE90010002017E038
:100920003AF818106A4602A801F04BFEB0F1FF3FFA
:1009300081460BD000250DF1080B05E0D4E901211B
:100940001BF8050090476D1C4D45F7D308F10100D9
:10095000B0428046E4DB206A384420622046FFF73C
:10096000ECFEBDE8FF9F00008E9600002DE9F041EF
:100970008046D21D22F007020025D2E90002F529A7
:1009800015A614D0011E72F1000106DA0023D0EB87
:10099000030063EB020211A608E0D8F800108B07F1
:1009A00001D50FA602E0490701D50EA60125114683
:1009B000002408F1240704E000F030FD30323A55FD
:1009C000641C50EA0102F7D12B46324621464046CC
:1009D000BDE8F04100F070BD000000002D000000F7
:1009E0002B0000002000000030B4002100F124049E
:1009F00008E002F00705D208303542EA4372DB080E
:100A00006554491C52EA0305F3D10468002310A27F
:100A1000250708D504F020040C4304D0C469012341
:100A20000CA2641EC46130BC00F046BD10B5044683
:100A300021461068FFF79BFE02462046BDE81040A5
:100A40000023D1E7D21D22F00701D1E90023CBE733
:100A50000000000030000000F0B40D4601880905D8
:100A600002D5214C7C4402E01F4C7C440E34002112
:100A700000F1240608E002F00F071209E75D42EAE0
:100A800003721B097754491C52EA0307F3D1027819
:100A90000023120704D5702D06D009B102231134AA
:100AA0002246F0BC00F008BD01231034F8E770B511
:100AB00004460D4621461068FFF759FE02462946B6
:100AC0002046BDE870400023C6E7D21D22F0070390
:100AD000D3E90023C0E70368126843F020030360F2
:100AE0000823C3610023B7E7F09400002DE9F05F0D
:100AF000894604464FF0000ADFF874B1FB44C0F8A1
:100B000020A02046E1688847002874D0252806D018
:100B1000D4E901219047206A401C2062F1E70026B9
:100B20005F462046E16888472028054607DB312DCF
:100B300005D2781910F8200C08B10643F1E7B00788
:100B400001D526F00406C4F81CA00027C4F818A09C
:100B50002A2D09D0284607F0BDF838B304EB8708E2
:100B6000303DC8F8185019E059F8041B204604EB32
:100B700087029161E1688847012F054618D1E06935
:100B8000002820DA26F020061DE0D8F8180000EB37
:100B9000800005EB40003038C8F818002046E168B6
:100BA0008847054607F096F80028EED1012F0AD0B5
:100BB0002E2D08D12046E16888477F1C0546022F6C
:100BC00046F02006C4DBA069002803DA404246F064
:100BD0000106A061F00701D026F010066C2D0BD0A5
:100BE000682D09D04C2D39D06A2D35D0742D35D0D3
:100BF0007A2D33D016E038E0E1682F46204688474A
:100C0000B842054609D16C2F26D04FF48060E168C8
:100C1000064320468847054604E06C2F1AD04FF45F
:100C2000807006430DB3A5F14100192802D8203584
:100C300046F400664A462946204626604E46FFF79F
:100C400009FB80B101280BD0F61D26F0070000F14A
:100C5000080956E74020E4E78020D8E70020D6E7DF
:100C600006F104094DE7284652E7206ABDE8F09FE7
:100C7000809400002DE9FF4F1C4691464FF0FF3550
:100C800081B000218A468846D4E90167A1690298AB
:100C90006D1C8847216A834688470028F6D1BBF13E
:100CA000FF3F0CD0002F26F4C0661ADD700615D564
:100CB000BBF12B0F0AD0BBF12D0F0FD104E04FF089
:100CC000FF3005B0BDE8F08F46F48066A169029858
:100CD0006D1C88477F1E8346002F02DDBBF1300F5D
:100CE00003D0B9F1000F2AD025E0A1696D1C02984C
:100CF0007F1E46F400768847002F834605DDBBF152
:100D0000780F06D0BBF1580F03D0B9F1000F10D007
:100D100011E0B9F1000F02D0B9F1100F0BD1A169A8
:100D20006D1C02987F1E26F40076884783461020AB
:100D300000E0082081464FEAE970009017E00A20A1
:100D4000F8E74346AAFB0928DDF800C07F1E03FB35
:100D5000098046F4007605F101050AFB0C0112EB4F
:100D60000B0A029841EBEB78A16988478346002F74
:100D700006DD4946584600F0B1FF5FEA000BE0D5BA
:100D8000E16902988847B00502D46FF0010098E746
:100D9000F00718D1700610D55146700505D500230F
:100DA000D1EB030163EB080200E042462068031D1B
:100DB00023600068C0E9001205E02068011D216081
:100DC0000068C0E900A828467BE72DE9FF5F1D46C3
:100DD0004FF0FF3B91464FF000085F46D5E90146D2
:100DE000A96901987F1C8847296A8246884700289C
:100DF000F6D1BAF1FF3F0CD0002E24F4C06419DD07
:100E0000600614D5BAF12B0F09D0BAF12D0F0ED10F
:100E100003E0584604B0BDE8F09F44F48064A9693B
:100E200001987F1C8847761E8246002E02DDBAF1AB
:100E3000300F03D0B9F1000F26D032E0A969761E39
:100E400001987F1C44F400748847002E824605DD1B
:100E5000BAF1780F06D0BAF1580F03D0B9F1000FEC
:100E600010D01EE0B9F1000F02D0B9F1100F18D167
:100E7000A969761E01987F1C24F400748847824675
:100E8000102002E0082000E00A20814609E0A9695C
:100E900008FB0908761E01987F1C44F400748847FB
:100EA0008246002E05DD4946504600F017FF002817
:100EB000EDDAE96901988847A00502D46FF00100D6
:100EC000A8E7E00725D1600613D5600502D5C8F173
:100ED000000000E0404629680A1D2A6009682205D2
:100EE00001D5087015E0220701D5088011E00860DF
:100EF0000FE02868011D29600068210502D580F8EF
:100F0000008006E0210702D5A0F8008001E0C0F8CB
:100F1000008038467EE72DE9FF5F4FF000089946D4
:100F2000144646469169D2E901A7DDF838B0019828
:100F30008847054659EA0B0005D009E0A1690198E8
:100F4000761C88470546216A284688470028F5D13F
:100F5000681C03D05FEACA7005D015E04FF0FF307F
:100F600004B0BDE8F09F2068011D2160D0F800802A
:100F70000AE05FEACA7001D108F8015BA169761C3A
:100F800001987F1E88470546002F1ADD681C18D07F
:100F9000B9F1000F0DD0E81705EBD060421120F039
:100FA0001F0059F822102A1A012090400142E0D176
:100FB00007E0BBF1000FDCD12846216A88470028F2
:100FC000D7D0E16901988847BBF1000F07D1002E07
:100FD00005DD5FEACA7002D1002188F80010A06820
:100FE000B84203DDBBF1000F03D017B16FF0010071
:100FF000B6E73046B4E70000026811441378016098
:1010000018467047D16005497944516104497944D3
:10101000116200211161114600F06EBEEDFFFFFF6D
:1010200095040000426842B1016811F8013B23B108
:10103000521EC0E90012184670470121C160881E87
:10104000704742685AB1C368016843B983688B42EC
:1010500005D0491E521CC0E90012002070474FF015
:10106000FF3070472DE9FF4F4FF000089A461446B5
:10107000C146464683B0D2E901B7CDF80080CDF82D
:101080000480916904988847109905465AEA01003E
:1010900005D009E0A1690498761C88470546216AB5
:1010A000284688470028F5D1681C03D05FEACB703A
:1010B00005D02AE04FF0FF3007B0BDE8F08F206880
:1010C000011D2160D0F800801FE002A86A46E9B245
:1010D00001F057FA411C07D0801C09D04FF00009DD
:1010E0005FEACB7007D00AE0E169049888473EE0E8
:1010F0004FF0010904E0BDF8081028F8021B7F1E1C
:10110000A1690498761C88470546002F1ADD681CE3
:1011100018D0BAF1000F0DD0E81705EBD0604211DE
:1011200020F01F005AF822102A1A01209040014294
:10113000CBD107E010980028C7D12846216A8847FC
:101140000028C2D0E16904988847B9F1000F0ED198
:10115000109830B9002E04DD5FEACB7001D1A8F8F9
:101160000000A068B84202DD109818B117B16FF006
:101170000100A1E730469FE72DE9FF4F4FF000083F
:101180009B461446454683B0D2E90196CDF80080CF
:10119000CDF804809169DDF848A004988847074697
:1011A0005BEA0A0005D009E0A16904986D1C884734
:1011B0000746216A384688470028F5D1781C03D0B5
:1011C0005FEAC97005D01BE04FF0FF3007B0BDE803
:1011D000F08F2068011D2160D0F8008010E05FEAE8
:1011E000C97007D16A464046B9B201F0EAF9411C1C
:1011F00031D08044A1696D1C0498761E884707464B
:10120000002E14DD781C12D0BBF1000007D03B4645
:10121000DDE9101201F0A6F90028E0D107E0BAF1EB
:10122000000FDCD13846216A88470028D7D0E16911
:1012300004988847BAF1000F06D1002D04DD5FEA5B
:10124000C97001D188F80000A068B04203DDBAF18E
:10125000000F03D016B16FF00100B7E72846B5E7DD
:101260002DE9FF5F9B46144600273D469169D2E970
:101270000196DDF840A00198884780465BEA0A00A5
:1012800005D009E0A16901986D1C88478046216A54
:10129000404688470028F5D1B8F1FF3F03D05FEA08
:1012A000C97005D014E04FF0FF3004B0BDE8F09FE6
:1012B0002068011D216007680AE05FEAC97001D15A
:1012C00027F8028BA1696D1C0198761E884780461D
:1012D000002E15DDB8F1FF3F12D0BBF1000007D0A2
:1012E0004346DDE90E1201F03DF90028E5D107E0A3
:1012F000BAF1000FE1D14046216A88470028DCD0CE
:10130000E16901988847BAF1000F05D1002D03DD8E
:101310005FEAC97000D13880A068B04203DDBAF13D
:10132000000F03D016B16FF00100BEE72846BCE7FE
:101330002DE9F041074615460E461020FFF797F9B4
:1013400004000AD06760C4E9026500F012F8016881
:10135000216004600020BDE8F0810120FBE710B5AA
:10136000FFF7DCF8083010BD10B5FFF7D7F82030D4
:1013700010BD10B5FFF7D2F8383010BD7047704778
:101380007047704738B504460A4600206946AFF3F7
:101390000080002808BF38BD02460099204601F0B1
:1013A00081F9012038BD012001F06DBAF8B5AFF325
:1013B0000080054600200C460C2000BF0646A819F8
:1013C000A0420DD9324669460020AFF300800700E5
:1013D00008BF01F058FA0098A04218BF0546C4198A
:1013E000FFF7BDFF05600746F01D20F00700461916
:1013F000284600F00AF8B44208BFF8BDA21B3146E7
:101400003868BDE8F84001F04DB9002140F8041BF0
:1014100040F8041B05F09EBB0C20704730B5B0F1BE
:101420000A0271F100034FEA900E4EEA817EB0EBA2
:101430000E0061EB91014FEA101E4EEA017E10EBA7
:101440000E0041EB11114FEA102E4EEA016E10EB27
:101450000E0041EB11214FEA104E4EEA014E10EB07
:101460000E0041EB1141401841F100014FEAD0005C
:1014700040EA41704FEAD1014FEA810444EA907496
:1014800010EB800544EB01046D1944EB0404521B7E
:10149000A3414FF0000348BF0A3200D530BD401CC5
:1014A00041F1000130BD10B50446FFF78DF800682A
:1014B000005D00F0010010BD2DE9F0470D46994692
:1014C0009246044600F124080168880604D5E069C4
:1014D00021F01001216000E00120A84201DD471B3E
:1014E00000E00027A1697A1902EB0900081AA0613F
:1014F0002078C00602D42046FFF709F9002608E04C
:10150000D4E901211AF806009047206A401C761C95
:1015100020624E45F4DB2078C0060AD52046FFF74E
:10152000F6F806E0D4E9012130209047206A401CFB
:101530002062381EA7F10107F4DC07E0D4E901219D
:1015400018F805009047206A401C2062281EA5F16B
:101550000105F3DC2046FFF7F0F82078000602D5FD
:101560000220BDE8F0870120FBE72DE9FF4F0C4684
:101570001E464FF0FF378BB0D2E90001DDF86080E6
:101580000A908A46C1F30A5505B93D46002108462E
:101590004FF00000BAF1000F00F4400005DA00EB54
:1015A00080004FF4400101EA50004FEA9059B9F130
:1015B000010F00DDB9460A9850EA4A000ED044F601
:1015C0001050A5F2FF3545432F14B8F1000F1ED07F
:1015D0007542291E1EDDC9F100021CE0B8F1010FA1
:1015E0004FF0000001D0302103E0F24305E0215428
:1015F000401CB042FBDB30460022002121540B99F5
:10160000C1F80880C1E900200FB0BDE8F08FBD1B14
:101610006D1CDEE74A4600DA694206A801F0B8F818
:1016200006AB93E8070003AB83E8070050460A992E
:1016300005F0B8FB8DE80700A0F500501F380090BA
:101640000398002D0ADD42F21F014A460844002398
:1016500003A90390684605F063FE09E0A0F5005079
:101660004A461F38002303A90390684605F082FE0E
:101670008DE807000004000C03D04FF0FF30410854
:1016800000E01046B8F1000F03D00022009215468A
:101690001EE0751E05D4FFF7C1FE303262556D1E87
:1016A000F9D5B3460122084302D000227F1C04E092
:1016B0002078302801D100227F1E002A099784D08B
:1016C0001DE0112D07DAFFF7A9FE303262556D1CBF
:1016D00050EA0102F5D1084302D00098C8B10EE0EB
:1016E0000021681E05E0235C625C63542254401EA6
:1016F000491C8142F7DBAB46A81B401E0990002025
:1017000004F80B000B98099AC0F80880C0E9002B78
:101710007AE711264FF0000857E72DE9F04F884689
:101720000446D21D22F0070191B0D1E90001CDE9B4
:101730000A0105F06DFF02460B98C00F01D02D2065
:1017400007E02068810701D52B2002E0202101EA73
:10175000C000032A099001D0072A05DB0346414651
:10176000204600F0D5FF0BE12078800601D5E06926
:1017700000E00620B8F1650F814606D0B8F1660F8B
:1017800018D0B8F1670F70D131E00020B9F1110F16
:10179000009001DB112301E009F101030AAA01A96C
:1017A0000CA8FFF7E2FEDDE90C70002609F1010547
:1017B000834647E001204B4600904FF000470AAABD
:1017C00001A90CA8FFF7D1FEDDE90DB00C995D462B
:1017D000002610B909F101000D18B9EB050003D47A
:1017E000C0F1FF3609F10105A5EB09002BE0B9F1C5
:1017F000010F01DA4FF001090020B9F1110F00903B
:10180000484601DD112300E003460AAA01A90CA8FD
:10181000FFF7ABFEDDE90C704D46002683462078CD
:1018200000070AD4AB4500DA5D4601A8012D04DDAE
:10183000411911F8011C302907D04F4502DA17F180
:10184000040F04DA012082460FE06D1EEEE7002F40
:1018500002DCED1B3E4403E0781CA84200DD7D1C49
:10186000B81B00F1010A4FF000472078000703D4AD
:10187000AA4501DB4FF0FF3A0021B7F1004F0DF10F
:1018800043088DF8431024D002202B23002F01DAC7
:101890007F422D230A21021EA0F1010000DC5FB16E
:1018A00097FBF1FC97FBF1F201FB1C7C17460CF156
:1018B000300C08F801CDEEE7A8F101000370218893
:1018C000090501D5452100E06521A0F1010800F8D6
:1018D000011C09980FA9A1EB0807FF1D00B1012009
:1018E000411901EBEA70A1693844081A401EA06151
:1018F0002078C00602D42046FEF709FF099828B1D7
:10190000D4E901219047206A401C20622078C0065B
:1019100022D52046FEF7FBFE1EE0002E04DBB34579
:1019200002DD01A8805D00E03020D4E9012190476C
:10193000206A401C2062761CAAF101005FEA000ABE
:101940000AD1FFF711FDC0680168405CD4E90121AC
:101950009047206A401C2062281EA5F10105DCDCAE
:1019600007E0D4E9012118F8010B9047206A401CD8
:101970002062381EA7F10107F3DC2046FEF7DDFEEA
:10198000032011B041E600002DE9F04F04460D465A
:10199000D21D22F0070089B0D0E9009748463946A9
:1019A00005F036FE0246F80F01D02D2307E020682F
:1019B000810701D52B2302E0202101EAC0038DF825
:1019C00020300BB1012000E00020032A824601D024
:1019D000072A04DB2946204600F09AFE3FE12078E2
:1019E000800601D40D2500E0E569C7F30A560D2DE8
:1019F00049DA00214FEA175B08464FF00000002F3C
:101A000000F4400007DA00EB80004FF4400100EBE7
:101A1000D07001EA60008115012901DD4FF0FF312E
:101A200000224FEA850CBCF1180F06D31346ACF127
:101A300018004FF08052C24003E04FF4801323FAA5
:101A40000CF30CF10C0CBCF1200F04D3ACF1200C06
:101A500009FA0CF001E007FA0CF000294FF00048F9
:101A600001DD18B90FE00ED140450CD319EB020986
:101A70005F4121B9404502D19F4329EA0209BBEBEE
:101A8000175F00D0761C2088000502D57B4878447B
:101A900002E07A487844193808AA302302F80A305C
:101AA000037C0AF10101002E0AF1020A53546A462E
:101AB00002DC4FF0300101E04FF031014FF001083E
:101AC0008DF8001002D0A6F2FF3603E059EA470174
:101AD00000D06B4E002D02DC2178090704D54FF0B1
:101AE00002082E218DF80110C44600210BE0C7F337
:101AF00003433F01C35C491C6D1E02F808300529F1
:101B000008F1010801DA002DF1DC00210CE000EB06
:101B10001973491C1B786D1E082902F808304FEA1A
:101B2000091908F1010801DA002DF0DC21688B06A3
:101B300002D516E0A8F10108E04505DD02EB080337
:101B400013F8013C302BF5D0B8F1000F09DD02EBA2
:101B5000080313F8013C2E2B03D1090701D4A8F187
:101B60000108002D05DD3E2102F808106D1E08F168
:101B70000108407C002E02F8080008F1010804DA90
:101B80002D20764202F8080002E02B2002F808001F
:101B90000A214FF47A70864208F101080BDB96FBAC
:101BA000F0F3303302F8083096FBF0F308F1010847
:101BB00000FB136601E0642E0CDB642096FBF0F35F
:101BC000303302F8083096FBF0F308F1010800FB0F
:101BD000136601E00A2E06DB96FBF1F0303002F8C6
:101BE000080008F1010896FBF1F001FB10603030AD
:101BF00002F80800A16908F1010808EB050202EBF0
:101C00000A00081AA0612078C00602D42046FEF718
:101C10007EFD216A08AE01EB0A00206204E0D4E9EF
:101C2000012116F8010B9047BAF1010AF7D220788A
:101C3000C00602D52046FEF76AFD6E4609E016F89A
:101C4000010B3E280FD0D4E901219047206A401CA7
:101C50002062B8F10108F2D22046FEF76EFD09B00D
:101C60000320BDE8F08F206A2844206203E0D4E915
:101C70000121302090476D1EEBD3F8E7128500005C
:101C800002FCFFFF10B5436913B1AFF3008001E020
:101C9000FEF776FD012010BD127800F124010A70D4
:101CA00000224A700122EDE711684FF0FF32E9E7A8
:101CB00010B5436913B1AFF3008001E0FEF7F8FD02
:101CC000012010BD128800F1240182840022C28408
:101CD0000122EDE711684FF0FF32E9E73A2800D220
:101CE000303820F02002412A01D3A2F13700884287
:101CF00001D34FF0FF3070472DE9F34F4FF0000A4A
:101D00000C4656468DB001200C9001F10C000B9052
:101D100062690B9801219047051E2DD0252D2CD0EE
:101D2000216A8847C0B162690B9801219047216AF6
:101D300088470028F7D16269411E0B98904700E060
:101D4000761CA1690D988847216A88470028F7D139
:101D5000E1690D988847DBE7A1690D988847A8429B
:101D6000074601D1761CD3E7E1690D9888477F1CAF
:101D700002D1BAF1000F6FD06BE162690B980027B6
:101D80003D46394690472A2804D162690B980121C3
:101D900090470125DFF8D08262690B9801219047B6
:101DA000A0F130010A290AD24745E5DC07EB87019B
:101DB00000EB4107303FDFD445F01005ECE7E906C2
:101DC00001D46FF000476C280AD04C2814D0682842
:101DD00015D06A280DD074281CD07A281AD01DE09E
:101DE00062690B98012190476C2802D045F00405E8
:101DF00014E045F002050DE045F020050AE06269B7
:101E00000B9801219047682802D045F0080505E0AD
:101E100045F4006562690B9801219047C4E90157B8
:101E200065283DD019DC58287AD00CDC452837D0FD
:101E300004DC252826D041289ED131E046282FD029
:101E4000472899D12CE05B2877D0612828D06328D7
:101E50007CD0642823D15AE0F6E06F2848D008DC13
:101E600066281DD067281BD0692821D06E2816D17E
:101E700027E0702845D0732868D0752847D0782887
:101E80000DD14DE0A1690D988847252805463FF4FE
:101E900069AFE1690D9888476D1C3FF46AAFD8E0DF
:101EA0000D9923466A466FF0010007F0E4FFC5E094
:101EB00045F0400023464FF000026060A80736D48A
:101EC0003EE0E8077FF447AF2068011D216000680D
:101ED000290501D506701BE7290701D5068017E7FC
:101EE000A90703D5F117C0E9006111E706600FE704
:101EF00045F0400023464FF008026060A80716D462
:101F00001EE040F60E0125EA0100606016E045F093
:101F1000400023464FF00A026060A80707D40FE094
:101F200045F040006060A80708D5234610220D99AF
:101F30006FF00100FEF79EFE80E007E010222346CE
:101F40000D996FF00100FEF740FF77E04FF00009B8
:101F500063284F46C8464B46CB4602D05B2806D086
:101F600038E0E80601D40120A060012732E0626970
:101F7000D4F80CB00B98012190475E2807D14FF0A0
:101F8000010949466269D4F80CB00B989047216961
:101F900039B900210A4603AB43F82120491C08291E
:101FA000FADBD8B3216949B308F1010862690B98DB
:101FB000012190475D28F4D1B9F1000F09D000202C
:101FC00003A951F82020D24341F82020401C0828C2
:101FD000F7DB03AB2069002820794FEA40701ED060
:101FE0005B462246CDF80080CDE901970D99002887
:101FF0006FF0010020DAFFF733F91FE0C11703AAE1
:1020000000EBD1614B1121F01F0102EB8302411A59
:1020100013680120884003431360C7E719E00D9956
:10202000224600286FF00100009702DAFFF71AF845
:1020300004E0FEF770FF01E0FFF79EF800280ADADF
:10204000401C06D10C9820B14FF0FF300FB0BDE816
:10205000F08F5046FAE7E90701D10AF1010A064478
:1020600000200C9054E60000CCCCCC0C2DE9FF4FA6
:1020700006468BB00878FF2806D0491C2D2805D0CD
:1020800000244FF0000908E000200CE00124F8E7EC
:1020900009EB8903491C00EB43090878FF28F7D1B5
:1020A00014B1C9F100008146107800252C46AA46DB
:1020B00029462D2801D02B2804D1521C2D2813D0BD
:1020C000002082468B461078FF280FD04FF0000C7E
:1020D0000A21521CA5FB017804FB018105FB0C11B0
:1020E000C5194BEB0104EEE70120EAE700210846A1
:1020F0004FF00000BAF1000F02D000EB8000400862
:10210000C0F38157012F01DD4FF0FF370E9955EADB
:10211000040009EB01080BD04FF0020918F5FA7F13
:1021200016DA4FEACA70002F706008DD012007E060
:102130004FEACA70C6E900B00FB0BDE8F08F0020CA
:102140003060FEF749FAC0F800901821084616E002
:10215000B8F5FA7F18DD002F02DAF748784401E07D
:10216000F6487844D0E90010C6E9001040EACA7089
:102170007060FEF731FAC0F80090142108460FB0E5
:10218000BDE8F04F07F010BE002108464FF00000F8
:10219000B8F10001099002DAC7F1000200E03A4606
:1021A00001DAC8F1000106A800F0F2FA06AB93E8E4
:1021B000070003AB83E8070044F23E005BEA04013A
:1021C0000090584604D144F21E012C465D46009111
:1021D000210C0904014306D10099240444EA154462
:1021E0002D041039009104F07F41014306D100997C
:1021F000240244EA15642D020839009104F070416C
:10220000014306D10099240144EA15742D01091FE8
:10221000009104F04041014306D10099A40044EA32
:102220009574AD00891E009104F00041084304D16B
:1022300000986D196441401E00904FF001033A462A
:102240006846B8F1000FCDE9014503A902DD05F0AC
:10225000A6F801E005F079F8BAF1000F04460D4642
:1022600001D084F00044002108464FF00000099995
:1022700040F2FF77484010F00C0F07D124F00040E7
:10228000284303D0C4F30A50B84212D1FEF7A4F990
:10229000C0F80090C4F30A50B8420AD1A848784464
:1022A000D0E90010C6E9001004F000410843706056
:1022B00042E7C6E900543FE72DE9FF4F1F464FF0C4
:1022C000000A4FF0FF38454691B0D7E90146CDF8F6
:1022D0003CA0FFF749F8C0680168405C1090B969FC
:1022E00012986D1C8847396A814688470028F6D1C4
:1022F000B9F1FF3F0AD0002E24F4D06411DDB9F10A
:102300002B0F08D0B9F12D0F0BD102E0404615B0CC
:1023100013E744F48064B96912986D1C8847761EEF
:102320008146600504A901D52D2000E02B20002E58
:1023300001F1010B0DF130088DF810003FDDB9F10E
:10234000690F08D0B9F1490F05D0B9F16E0F02D06D
:10235000B9F14E0F1CD13B4601A8009580E8500210
:10236000DDE912126FF0020007F089FDC11CCED129
:102370000EE0B96912986D1C884781461398761E45
:1023800044F4007405600F98401C002E0F9016DD79
:10239000B9F1300FEDD0B9F1780F02D0B9F1580F83
:1023A0000DD10F9801280AD13B46CDE90054DDE953
:1023B0001212001F029607F060FDC11CA7D11099F0
:1023C00089453ED144F0800406E01399681CAAF1C7
:1023D000010A44F400740860B9696D1C1298761EF5
:1023E000884730288146F0D02BE01099894505D1E7
:1023F000200603D4761E44F0800418E0484605F019
:1024000069FC08B3761E0DF123029345A9F1300053
:1024100044F4007406D20BF8010B200607D5AAF18C
:10242000010003E0200602D40AF101008246A00563
:1024300002D51399681C0860B96912986D1C884709
:102440008146002ED1DC53E0002E51DDB9F1650F3D
:1024500002D0B9F1450F4BD1A00549D5B9696D1C22
:102460001298761E24F440748847002E81460CDDB5
:102470002B2804D0B9F12D0F07D144F48074B96929
:1024800012986D1C8847761E8146E00501D52D21E6
:1024900000E02B2108F8011BCDF8008021E0761E1A
:1024A0000DF13901884544F400740CD2A9F13000D3
:1024B00010F0FF0088F8000002D10099884509D982
:1024C00008F1010806E0E00501D51E4801E042F2EE
:1024D0000F708246B96912986D1C8847814613981F
:1024E0000560002E04DD484605F0F4FB0028D6D137
:1024F000F96912988847FF2053468BF8000088F846
:10250000000000200A900B9004AA0CA90AA8FFF76B
:10251000ADFDA00502D46FF00100F8E614F0240F21
:1025200012D0E0071CD13868DDE90A12031D3B60B8
:102530000068C0E9001213E0948400008684000063
:102540004A830000F1D8FFFF0AA9684605F08CFB1A
:10255000E00705D13868009A011D39600068026003
:102560002846D4E610B508E030F8024B9C4204D16E
:102570000AB1002010BD012010BD491EF4D2104642
:1025800010BDF8B516460C460546FEF71DF8036863
:1025900093F80101012804D0185D78B101202C8046
:1025A000F8BDD3F803013246214603F20313C718DE
:1025B00068460023B84700992980F8BD4FF0FF30E6
:1025C000F8BD2DE9F04116460C460546FDF7FCFF27
:1025D000036893F80101012807D0FF2C12D8185D79
:1025E00080B101202C70BDE8F081D3F8070132469C
:1025F000214603F20713C7182846BC46BDE8F04140
:10260000002360474FF0FF30EDE72DE9F04106462B
:10261000FEF7AFFE8046454613E016B1E068B042D3
:102620000ED120682860D4E90101D8F800708847ED
:102630002046FEF757F8D8F80000B842EBD100E08A
:1026400025462C68002CE8D1BDE8F0817546FDF7E1
:1026500065FFAE4605006946534620F007008546F3
:1026600018B020B5FDF748FFBDE820404FF0000648
:102670004FF000074FF000084FF0000BAC46ACE8FD
:10268000C009ACE8C009ACE8C009ACE8C00921F059
:1026900007018D467047801A0844401E491E884332
:1026A0001044704770B5144605468C464368002BAD
:1026B00018BF634538BF1846F8D302681044604518
:1026C00008D06646604604220821FFF7E4FF811B1C
:1026D0008446641A2946CCF80040BDE870400022C8
:1026E0000CF10400FDF7CDBFB2F120030AD5C2F111
:1026F000200301FA02F120FA03F341EA030100FA90
:1027000002F0704700FA03F14FF00000704700003C
:102710002DE9F0411F46044603260168072A01F40B
:10272000006004DB08B116A505E016A503E008B1BA
:1027300015A500E015A521F010002060A069C01EBD
:10274000A0610FB1401EA0612046FDF7E0FF4FB130
:10275000D4E9012138469047206A401C2062C01C01
:10276000206206E0206AFAE7D4E9012115F8010B9E
:102770009047761EF8D22046FDF7DFFFBDE8F081D6
:102780004E414E006E616E00494E4600696E660015
:102790002DE9F047814616468AB0354878440DC881
:1027A0008DE80D0032487844801C03AC0DC884E8E5
:1027B0000D0041F69B300844372190FBF1F290FB6D
:1027C000F1F5A5F1800501FB12041B3C02D5644222
:1027D000012000E00020DFF898A080460027FA449E
:1027E000AAF1BE0A0EE0E0070AD03246684607EBBF
:1027F000470101230AEB810104F0BCFD8DE80700CD
:1028000064107F1C002CEED1194F7F44AE3F19E0BD
:10281000E80715D007EB04100DF1180A90E80E0038
:102820008AE80E00C068F04201D19819089032463B
:10283000012306A903A804F09DFD03AB83E807006C
:102840006D10641C002DE3D14FF001033246694640
:10285000B8F1000F03A802D004F062FD01E004F01B
:1028600089FDC9E90001C9F808200AB0BDE8F08770
:102870009478000010B50446AFF300802046BDE810
:102880001040FDF759BD10B500F07CFABDE81040CE
:1028900000F072BA0000000030B44FF0013C50F874
:1028A000042B51F8043BCCFA52F4D51A20D1FCB9D0
:1028B00050F8042B51F8043BCCFA52F4D51A17D136
:1028C000B4B950F8042B51F8043BCCFA52F4D51AA1
:1028D0000ED16CB950F8042B51F8043BCCFA52F4E9
:1028E000D51A05D1002CDAD030BC4FF0000070476B
:1028F00029BAB1FA81F111F01801D1F12000844018
:10290000F2D1CA40CB4012F0FF0213F0FF0330BCFB
:10291000D01A704701491820ABBEFEE7260002001E
:10292000704700002DE9FF4F1F464FF03C0987B06C
:102930004FF00042DDE9141001F10108DDF858A064
:1029400002EA405003900020059083460546044665
:102950000490B969461E08988847AAF1010A0290B6
:10296000BAF1000F3BDD02982E2815D01021FFF799
:10297000B5F900282EDB4FF0010B0599014317D064
:10298000B9F1000F0BDB4A46C117FFF7ADFE054357
:102990000C43A9F1040905E0012004900BE008B103
:1029A00045F0010501200590049820B9361D02E08C
:1029B000049800B1361FB969089808F101088847E2
:1029C000BBF1000FAAF1010A0290C9D00999C1F820
:1029D0000080C5E70298702808D0502806D0F96911
:1029E00008988847BBF1000F14D04FE000200290F8
:1029F0000120BBF1000F049009D0B969089808F1D3
:102A000001088847AAF10109B9F1000F07DCF9694B
:102A1000089888476FF001000BB0BDE8F08F2B28B5
:102A200004D02D280CD14FF0FF300490B9690898DC
:102A300008F101088847A9F10109B9F1000FE6DDA5
:102A4000411CE4D00A21FFF749F90028DFDB029995
:102A500008F1010801EB810100EB41000290B96926
:102A6000089888470A21FFF739F9099AA9F101095D
:102A7000B9F1000FC2F8008001DD0028E7DAF9693A
:102A8000089888470499029800FB016655EA0400FB
:102A900004D004F04041090002D006E0039898E019
:102AA000A40044EA9574AD00B61E04F0004108008D
:102AB00002D16D196441761E159810F0240F03D0D1
:102AC0004FF00B095C4803E04FF028096FF07D00E0
:102AD0008246564507DAAAEB06018944B9F1410F4F
:102AE00001DD4FF0410901200021A9F10102FFF7AA
:102AF000FBFD024628400B462140084301D001213E
:102B000000E00021501E029143F1FF312840214096
:102B1000084301D0012000E000200299834651EAD9
:102B20000B014FD0002108464FF00000039900F43C
:102B3000400039B100EB80004FF4400100EBD07051
:102B400001EA60008015012802DD4FF0FF3000E04F
:102B500013D0401C36D0029860B3BBF1000F0CD1EB
:102B60004A4601200021FFF7BFFD284021400843CD
:102B700001D0012000E00020E0B101204A46002100
:102B8000FFF7B2FD034640190A4661412D1A8C41F8
:102B900011D3B9F1400F09DD159810F0240F02D0C0
:102BA000AAF1340603E0AAF1170600E0761C00251E
:102BB0004FF0004406E05B1E42F1FF3220EA0305BD
:102BC00021EA0204CAF10100B04206DA1B49039867
:102BD00008430190002000900EE0039AC4F3D32133
:102BE000E80A0A43164940EA44500A433146CDE90F
:102BF0000002684605F041F8159810F0240F0BD03C
:102C00001598C00715D13868DDE90012031D3B6037
:102C10000068C0E900120CE002A8694605F024F83B
:102C20001598C00705D13868029A011D39600068FF
:102C300002604046F0E6000002FCFFFF0000F07F6B
:102C40000000F03F2DE9FF4F92461D4685B04FF042
:102C50000041DDE9124BDDE914727F1E01EA4B50A1
:102C6000414940F0FF4940EA0108002122F02000DC
:102C70004928049102D04E2828D04CE03BA00126E0
:102C800007C88DE80700A9690698641C88477F1E5D
:102C9000014606D41DF8060018B121F0200181423A
:102CA0000BD0E96906988847032E34D0082E32D01D
:102CB0006FF0010009B0BDE8F08F761C032E01D043
:102CC000082EE0D1601CCAF80000DCE7A96906986C
:102CD000641C88477F1E2AD420F02000412826D17A
:102CE000A9690698641C88477F1E20D420F0200024
:102CF0004E281CD1A9690698641C88477F1E48F499
:102D0000002849F48009CAF8004001D4282806D0D8
:102D1000E969069888475FEACB7012D022E0A9697A
:102D20000698641C88477F1E01D4002803DAE969ED
:102D300006988847BCE72928F1D1641CCAF80040EE
:102D4000E9E71BF0240F07D028680499031D2B60C6
:102D50000068C0E9001805E02868021D2A600068C4
:102D6000C0F800902046A5E70000F07F494E464994
:102D70004E49545900000000002801D0FFF7CABD99
:102D80007047000010B5012805D0002103A000F015
:102D900021F8012010BD09A1F8E70000534947526E
:102DA000544D454D3A204F7574206F66206865611B
:102DB00070206D656D6F7279000000003A204865E3
:102DC0006170206D656D6F727920636F72727570BE
:102DD0007465640070B505460C460A2000E06D1C61
:102DE00000F011F835B128780028F8D102E0641C11
:102DF00000F009F814B120780028F8D1BDE870403F
:102E00000A20AFF3008008B569468DF80000032062
:102E1000ABBE08BD80B540F2CC30C2F20000006805
:102E200038B1FFE740F2CC30C2F2000000688047C2
:102E3000FFE743F61441C4F20101086840F00100C5
:102E4000086080BD80B543F61440C4F201000068FC
:102E50004005002817D5FFE740F2D430C2F2000049
:102E6000006838B1FFE740F2D430C2F200000068D9
:102E70008047FFE743F61441C4F20101086840F4BB
:102E800080600860FFE743F61440C4F20100006868
:102E90000005002817D5FFE740F2D830C2F2000045
:102EA000006838B1FFE740F2D830C2F20000006895
:102EB0008047FFE743F61441C4F20101086840F47B
:102EC00000600860FFE743F61440C4F201000068A8
:102ED000C004002817D5FFE740F2DC30C2F2000042
:102EE000006838B1FFE740F2DC30C2F20000006851
:102EF0008047FFE743F61441C4F20101086840F43B
:102F000080500860FFE743F61440C4F201000068F7
:102F10008004002817D5FFE740F2E030C2F200003D
:102F2000006838B1FFE740F2E030C2F2000000680C
:102F30008047FFE743F61441C4F20101086840F4FA
:102F400000500860FFE743F61440C4F20100006837
:102F50004004002817D5FFE740F2E430C2F2000039
:102F6000006838B1FFE740F2E430C2F200000068C8
:102F70008047FFE743F61441C4F20101086840F4BA
:102F800080400860FFE743F61440C4F20100006887
:102F90000004002817D5FFE740F2E830C2F2000035
:102FA000006838B1FFE740F2E830C2F20000006884
:102FB0008047FFE743F61441C4F20101086840F47A
:102FC00000400860FFE780BD80B540F2D030C2F21B
:102FD0000000006838B1FFE740F2D030C2F20000D4
:102FE00000688047FFE743F61441C4F20101086816
:102FF00040F00200086080BD80B540F2EC30C2F2C3
:103000000000006838B1FFE740F2EC30C2F2000087
:1030100000688047FFE743F61441C4F201010868E5
:1030200040F00400086080BD80B540F2F030C2F28C
:103030000000006838B1FFE740F2F030C2F2000053
:1030400000688047FFE743F61441C4F201010868B5
:1030500040F00800086080BD80B540F2F430C2F254
:103060000000006838B1FFE740F2F430C2F200001F
:1030700000688047FFE743F61441C4F20101086885
:1030800040F01000086080BD80B543F61440C4F2E3
:10309000010000688006002817D5FFE740F2F830ED
:1030A000C2F20000006838B1FFE740F2F830C2F227
:1030B000000000688047FFE743F61441C4F20101B5
:1030C000086840F020000860FFE743F61440C4F2AF
:1030D000010000684006002817D5FFE740F2FC30E9
:1030E000C2F20000006838B1FFE740F2FC30C2F2E3
:1030F000000000688047FFE743F61441C4F2010175
:10310000086840F040000860FFE743F61440C4F24E
:10311000010000680006002817D5FFE740F20040D4
:10312000C2F20000006838B1FFE740F20040C2F28E
:10313000000000688047FFE743F61441C4F2010134
:10314000086840F080000860FFE743F61440C4F2CE
:1031500001000068C005002817D5FFE740F20440D1
:10316000C2F20000006838B1FFE740F20440C2F24A
:10317000000000688047FFE743F61441C4F20101F4
:10318000086840F480700860FFE743F61440C4F21A
:10319000010000688005002817D5FFE740F20840CD
:1031A000C2F20000006838B1FFE740F20840C2F206
:1031B000000000688047FFE743F61441C4F20101B4
:1031C000086840F400700860FFE780BD80B545F2F4
:1031D0001440C4F20000016840F29870C2F200008E
:1031E000016000788007002819D5FFE745F21840F4
:1031F000C4F20000006840F29871C2F20001086059
:1032000040F21440C2F20000006838B1FFE740F21B
:103210001440C2F2000000688047FFE746E040F239
:103220009870C2F200000078400600281ED5FFE723
:1032300045F21040C4F20000006840F29471C2F2FE
:103240000001087040F20C40C2F20000006860B15A
:10325000FFE740F20C40C2F20000016840F29470B7
:10326000C2F2000000788847FFE71FE040F2987044
:10327000C2F200000078C006002817D5FFE745F22B
:103280000041C4F20001086840F48060086040F228
:103290001040C2F20000006838B1FFE740F2104071
:1032A000C2F2000000688047FFE7FFE780BD000032
:1032B00080B545F61400C4F20000016840F2987031
:1032C000C2F20000016000788007002819D5FFE7EE
:1032D00045F61800C4F20000006840F29871C2F28E
:1032E0000001086040F22040C2F20000006838B1DE
:1032F000FFE740F22040C2F2000000688047FFE78D
:1033000046E040F29870C2F20000007840060028C3
:103310001ED5FFE745F61000C4F20000006840F239
:103320009471C2F20001087040F21840C2F200002D
:10333000006860B1FFE740F21840C2F20000016887
:1033400040F29470C2F2000000788847FFE71FE067
:1033500040F29870C2F200000078C006002817D52D
:10336000FFE745F60001C4F20001086840F4806000
:10337000086040F21C40C2F20000006838B1FFE76C
:1033800040F21C40C2F2000000688047FFE7FFE700
:1033900080BD000080B545F61440C4F2000001680D
:1033A00040F29870C2F200000160007880070028A7
:1033B00019D5FFE745F61840C4F20000006840F256
:1033C0009871C2F20001086040F22C40C2F2000085
:1033D000006838B1FFE740F22C40C2F200000068FC
:1033E0008047FFE746E040F29870C2F200000078A4
:1033F000400600281ED5FFE745F61040C4F2000045
:10340000006840F29471C2F20001087040F224405A
:10341000C2F20000006860B1FFE740F22440C2F24F
:103420000000016840F29470C2F200000078884702
:10343000FFE71FE040F29870C2F200000078C0067B
:10344000002817D5FFE745F60041C4F200010868DF
:1034500040F48060086040F22840C2F2000000683A
:1034600038B1FFE740F22840C2F200000068804710
:10347000FFE7FFE780BD000080B543F61440C4F2CB
:10348000010000688003002849D5FFE742F60C00E0
:10349000C4F200000068C005002817D5FFE740F21D
:1034A000C430C2F20000006838B1FFE740F2C43017
:1034B000C2F2000000688047FFE742F60C01C4F248
:1034C0000001086820F480700860FFE742F60C00F5
:1034D000C4F2000000688005002817D5FFE740F21D
:1034E000C830C2F20000006838B1FFE740F2C830CF
:1034F000C2F2000000688047FFE742F60C01C4F208
:103500000001086820F400700860FFE743F61441EA
:10351000C4F20101086840F400300860FFE780BD94
:1035200086B0002105910491022003900291019040
:1035300043F60800C4F20200006800F00C00059099
:103540000598009040B1FFE7009804280ED0FFE7EF
:103550000098082814D059E040F23C01C2F2000162
:1035600042F20040C0F2F400086059E040F23C0131
:10357000C2F2000141F20020C0F27A0008604FE080
:1035800043F60400C4F202000168C1F380510291C5
:10359000006800F03F000190029888B1FFE70199B0
:1035A00041F20020C0F27A00B0FBF1F043F60401D2
:1035B000C4F202010968C1F388114843049010E085
:1035C000019942F20040C0F2F400B0FBF1F043F682
:1035D0000401C4F202010968C1F388114843049050
:1035E000FFE743F60400C4F20200006800F4403133
:1035F000022000EBD130039004980399B0FBF1F066
:1036000040F23C01C2F20001086009E040F23C01D6
:10361000C2F2000142F20040C0F2F4000860FFE78D
:1036200043F60800C4F202000068C0B201094AF281
:103630006C00C0F60000405C0590059A40F23C0129
:10364000C2F200010868D040086006B07047000070
:103650004EF68851CEF20001086840F47000086010
:103660007047000080B544F21001C4F201010868FF
:1036700020F00100086040F24840C2F200000068FB
:1036800038B1FFE740F24840C2F2000000688047CE
:10369000FFE780BD80B544F61001C4F2010108685F
:1036A00020F00100086040F23440C2F200000068DF
:1036B00038B1FFE740F23440C2F2000000688047B2
:1036C000FFE780BD80B544F21041C4F201010868F3
:1036D00020F00100086040F23040C2F200000068B3
:1036E00038B1FFE740F23040C2F200000068804786
:1036F000FFE780BD80B51021C4F20001086820F00A
:103700000100086040F23840C2F20000006838B1A1
:10371000FFE740F23840C2F2000000688047FFE750
:1037200080BD000080B540F21041C4F2000108687D
:1037300020F00100086040F23C40C2F20000006846
:1037400038B1FFE740F23C40C2F200000068804719
:10375000FFE780BD80B540F61001C4F200010868A3
:1037600020F00100086040F24040C2F20000006812
:1037700038B1FFE740F24040C2F2000000688047E5
:10378000FFE780BD80B540F61041C4F20001086833
:1037900020F00100086040F24440C2F200000068DE
:1037A00038B1FFE740F24440C2F2000000688047B1
:1037B000FFE780BD80B582B041F20000C4F2010095
:1037C00000688006002801D4FFE720E040F24C406A
:1037D000C2F20000006868B1FFE740F24C40C2F25C
:1037E0000000016841F20400C4F201000068C0B2A8
:1037F0008847FFE741F20000C4F201000068019031
:1038000041F20400C4F2010000680190FFE702B039
:1038100080BD000080B582B044F20040C4F20000D8
:1038200000688006002801D4FFE720E040F2504005
:10383000C2F20000006868B1FFE740F25040C2F2F7
:103840000000016844F20440C4F200000068C0B205
:103850008847FFE744F20040C4F20000006801908E
:1038600044F20440C4F2000000680190FFE702B097
:1038700080BD000080B582B041F20040C4F201007A
:1038800000688006002801D4FFE720E040F25440A1
:10389000C2F20000006868B1FFE740F25440C2F293
:1038A0000000016841F20440C4F201000068C0B2A7
:1038B0008847FFE741F20040C4F201000068019030
:1038C00041F20440C4F2010000680190FFE702B039
:1038D00080BD000080B503F017F880BD80B503F00F
:1038E0003BF880BD80B503F02FF803F075F803F0C6
:1038F00089F803F09DF803F0A3F803F0A9F803F0AA
:10390000AFF803F0B5F803F0BBF880BD80B503F065
:1039100043F880BD80B5FFF703FE4EF6FC51CEF2B2
:103920000001086840F08070086041F20001CEF2AA
:103930000001086840F00100086080BD80B594B0C7
:1039400040F25840C2F200001090002101F026FE23
:1039500010986A46162111600F22432301F0E6FDFC
:103960001098012101F01AFE109802F03BFF47F673
:103970001831C2F200010868013008603C2829DBD8
:10398000FFE747F61831C2F200010020086040F25C
:10399000A801C2F200010868013008603C2818DB69
:1039A000FFE740F2A801C2F200010020086040F2E7
:1039B000A401C2F20001086801300860182807DB82
:1039C000FFE740F2A401C2F2000100200860FFE717
:1039D000FFE7FFE700208DF84C001290119040F2B5
:1039E000A400C2F200000F90026840F2A800C2F2E8
:1039F0000000036847F61830C2F20000006869460C
:103A000008604AF2AC51C0F6000111A80D90FCF715
:103A100089FD0D9B40F25840C2F200000E90162125
:103A20000F2201F0D1FC0E9802F0DCFE0F98006826
:103A300040F2BC71C2F200010968884240F009817D
:103A4000FFE740F2A800C2F20000006840F2C07137
:103A5000C2F200010968884240F0FB80FFE747F6A8
:103A60001830C2F20000006840F2C471C2F20001D6
:103A70000968884240F0ED80FFE740F2C870C2F26A
:103A800000000078C007002800F0E380FFE740F264
:103A90005840C2F200000C9002F0E0FD0C984AF28F
:103AA0001C53C0F600030521002201F08DFC40F2FA
:103AB000F460C2F20000012101F0E8F80C9840F235
:103AC000AC01C2F2000102F02DFE0C9802F08AFE59
:103AD000FFE740F28C70C2F2000002F0A5FC014644
:103AE00040F20C70C2F200000170017840F229002F
:103AF000C2F20000405C412840F0A980FFE740F29C
:103B0000C870C2F2000000210891017040F2F46018
:103B1000C2F2000001F0BAF840F25840C2F20000D0
:103B20000B9002F09BFD0B984AF2A553C0F60003E0
:103B3000142104910F22069201F046FC06990B987D
:103B40004AF27553C0F600031E22029201F03CFCBB
:103B50000B9802F047FE4FF4FA7000F099FD0B98B5
:103B600002F07CFD0299089A0B984AF26F53C0F656
:103B7000000301F029FC0B984AF24553C0F60003FC
:103B800005930A220392114601F01EFC069A0B9837
:103B90004AF2C953C0F600030993082101F014FC4E
:103BA000069A099B0B98482101F00EFC0399049A90
:103BB000059B0B9801F008FC40F2A400C2F2000043
:103BC000026840F2A800C2F20000036847F618300D
:103BD000C2F200000068694608604AF2AC51C0F6C3
:103BE000000111A80790FCF79DFC069A079B0B9813
:103BF000162101F0E9FB08990B984AF24253C0F6EE
:103C00000003202201F0E0FB099B0B9828210A9178
:103C1000252201F0D9FB099B0A990B98292201F072
:103C2000D3FB0A9A0B984AF26153C0F600030221B3
:103C300001F0CAFB0A9A0B984AF26853C0F60003D7
:103C40002F2101F0C1FB0B9802F0CCFD00E040E712
:103C5000FFE714B080BD000080B5A6B040F28C70C4
:103C6000C2F2000002F0E0FB014640F20C70C2F22A
:103C7000000001700078002800F0E980FFE740F2C2
:103C80000C70C2F20000017840F22900C2F200007C
:103C9000405C232861D1FFE740F2C970C2F2000006
:103CA0000078C007002858D1FFE740F25840C2F220
:103CB00000001D9002F0D2FC1D984AF2BB53C0F6E2
:103CC0000003052100221F9201F07EFB1D984AF29D
:103CD0004553C0F600031C930A221B92114601F0C3
:103CE00073FB1D984AF2C953C0F600031A930821CA
:103CF0000F22199201F068FB199A1A9B1D9848210E
:103D000001F062FB1B991C9B1D98142201F05CFBC7
:103D10001D981F994AF23353C0F600031B2201F08D
:103D200053FB1D9840F24003C2F200031E9316217C
:103D3000272201F049FB1D9802F054FD1E991F989F
:103D400046F66012C2F200021060087040F2C971BB
:103D5000C2F200010120087078E040F2C970C2F29E
:103D600000000078C00700286FD0FFE746F660101B
:103D7000C2F200000068072867DCFFE746F6601023
:103D8000C2F200000068022808D0FFE746F6601083
:103D9000C2F20000006805280FD1FFE746F6601167
:103DA000C2F200010B6840F24002C2F200023A2067
:103DB000D054086801300860FFE740F20C70C2F28E
:103DC0000000017840F22900C2F20000425C46F691
:103DD0006011C2F2000118910B6840F24000C2F27B
:103DE00000001690C2540A6801320A600A68002175
:103DF0001491815440F25840C2F20000179001F033
:103E0000CDFB149917986B462D221A602722159224
:103E10004B2301F08BFB1798012101F0BFFB159A92
:103E2000169B1798162101F0CFFA179802F0DAFCCA
:103E300018980068082807DBFFE740F2C971C2F252
:103E4000000100200870FFE7FFE7FFE7FFE740F20F
:103E50000C70C2F20000017840F22900C2F20000AA
:103E6000405C44286AD1FFE7694623A8086040F215
:103E70004000C2F200004AF2AC51C0F6000125AA8F
:103E800024ABFCF765FB032857D1FFE725980028F2
:103E900029D4FFE72598172825DCFFE72498002878
:103EA00021D4FFE724983B281DDCFFE72398002856
:103EB00019D4FFE723983B2815DCFFE7259840F24B
:103EC000A401C2F200010860249840F2A801C2F2E5
:103ED00000010860239847F61831C2F2000108601B
:103EE00000F002FA28E040F25840C2F200001290BE
:103EF00002F0B4FB12984AF29753C0F60003052172
:103F00000022139201F060FA4FF4FA7000F0C0FB47
:103F1000139846F66011C2F20001086040F24001B9
:103F2000C2F20001087040F2C971C2F20001012022
:103F3000087000F0D9F9FFE7FFE7FFE740F20C70E7
:103F4000C2F20000017840F22900C2F20000405C99
:103F50002A2840F08881FFE740F27201C2F2000196
:103F60000D9100200F90087040F2C971C2F200015B
:103F7000109101201190087040F25840C2F20000E8
:103F80000E9002F06BFB0E980F9A4AF2BB53C0F6EC
:103F90000003052101F018FA0E984AF24553C0F6C5
:103FA00000030C930A220B92114601F00DFA0E98B1
:103FB0004AF2C953C0F600030A9308210F2209925E
:103FC00001F002FA099A0A9B0E98482101F0FCF9C7
:103FD0000B990C9B0E98142201F0F6F90E980F998C
:103FE0004AF22453C0F600031B2201F0EDF90D9BA9
:103FF0000E981621272201F0E7F90E9802F0F2FB45
:104000000F9A1099119840F2CC73C2F200031A6013
:104010000870FFE740F2C970C2F20000017800208A
:10402000C907089059B1FFE740F2CC70C2F2000016
:10403000016800200829B8BF01200890FFE7089810
:10404000C007002800F09480FFE740F28C70C2F2B5
:10405000000002F0E9F9014640F20C70C2F20000E3
:1040600001700078002800F08280FFE740F20C70B9
:10407000C2F20000017840F22900C2F20000405C68
:104080002A2874D0FFE740F2CC70C2F2000000682A
:10409000022808D0FFE740F2CC70C2F200000068AE
:1040A00005280FD1FFE740F2CC71C2F200010B6886
:1040B00040F27202C2F200023A20D0540868013085
:1040C0000860FFE740F20C70C2F20000017840F295
:1040D0002900C2F20000425C40F2CC71C2F2000141
:1040E00007910B6840F27200C2F200000590C254C2
:1040F0000A6801320A600A6800210391815440F283
:104100005840C2F20000069001F048FA0399069860
:104110006B462D221A60272204924B2301F006FAE7
:104120000698012101F03AFA049A059B0698162197
:1041300001F04AF9069802F055FB07980068082834
:1041400007DBFFE740F2C971C2F2000100200870EE
:10415000FFE7FFE740F28C70C2F2000002F064F962
:1041600020B1FFE70A2003F0C5FEF3E7FFE751E7C0
:10417000694620A8086040F27200C2F200004AF2CC
:10418000AC51C0F6000122AA21ABFCF7E1F90328EB
:1041900068D1FFE7229800284CD4FFE7229817281F
:1041A00048DCFFE72198002844D4FFE721983B280A
:1041B00040DCFFE7209800283CD4FFE720983B280C
:1041C00038DCFFE7229840F2BC71C2F200010860BF
:1041D000219840F2C071C2F200010860209840F2BC
:1041E000C471C2F20001086040F2C871C2F200015D
:1041F0000120087040F25840C2F20000029002F024
:104200002DFA02984AF25A53C0F6000319210422EB
:1042100001F0DAF802984AF25153C0F60003142173
:104220001E2201F0D1F84FF4167000F031FA00F0C0
:104230005BF816E040F25840C2F20000019002F034
:104240000DFA01984AF27F53C0F6000305210022BF
:1042500001F0BAF84FF4FA7000F01AFA00F044F8DE
:10426000FFE7FFE7FFE7FFE740F28C70C2F20000D4
:1042700002F0DAF808B1FFE7F6E726B080BD0000EB
:1042800080B582B00190FFE740F28C70C2F200006E
:1042900002F034F940F20D71C2F20001087040F2F0
:1042A0008870C2F200000068012103F083FEEBE792
:1042B00080B588B0079000F017F8FFE701A800214B
:1042C0004FF0FF3202F0E4FB01980299039A069244
:1042D000059104909DF81400C00718B1FFE7FFF79F
:1042E000BBFCFFE7EAE7000080B58CB040F2584025
:1042F000C2F20000089002F0B1F908984AF26F5338
:10430000C0F600031E210022059201F05DF8089816
:104310004AF24553C0F6000302930A220192114665
:1043200001F052F808984AF2C953C0F60003069308
:1043300008210F22039201F047F8039A069B089880
:10434000482101F041F80199029B0898142201F0DC
:104350003BF805988DF82C000A90099040F2A400D3
:10436000C2F20000026840F2A800C2F20000036836
:1043700047F61830C2F200000068694608604AF249
:10438000AC51C0F6000109A80490FCF7CBF8039AE1
:10439000049B0898162101F017F8059908984AF22D
:1043A0004253C0F60003202201F00EF8069B089845
:1043B00028210791252201F007F8069B0799089804
:1043C000292201F001F8079A08984AF26153C0F6D1
:1043D0000003022100F0F8FF079A08984AF2685398
:1043E000C0F600032F2100F0EFFF089802F0FAF961
:1043F0000CB080BD80B5FFF793F840F23C00C2F2EC
:104400000000006880BD000080B582B0FFF7F2FFB9
:10441000019043F60800C4F202000068C0F3822055
:10442000043801460091032858D80099DFE801F0CC
:1044300002172C41019805F0C2F941EC100B9FEDD9
:10444000301B53EC112B51EC100B04F0F5FF41EC39
:10445000100B51EC100B05F085F901903FE001982D
:1044600005F0ADF941EC100B9FED231B53EC112B24
:1044700051EC100B04F0E0FF41EC100B51EC100B71
:1044800005F070F901902AE0019805F098F941ECE7
:10449000100B9FED171B53EC112B51EC100B04F07C
:1044A000CBFF41EC100B51EC100B05F05BF90190C8
:1044B00015E0019805F083F941EC100B9FED0A1B04
:1044C00053EC112B51EC100B04F0B6FF41EC100B28
:1044D00051EC100B05F046F9019000E0FFE7019860
:1044E00002B080BD00BF00BF0000000000003040EF
:1044F000000000000000204000000000000010400C
:10450000000000000000004080B582B0FFF772FF9D
:10451000019043F60800C4F202000068C0F3423084
:10452000043801460091032858D80099DFE801F0CB
:1045300002172C41019805F042F941EC100B9FED58
:10454000301B53EC112B51EC100B04F075FF41ECB8
:10455000100B51EC100B05F005F901903FE00198AC
:1045600005F02DF941EC100B9FED231B53EC112BA3
:1045700051EC100B04F060FF41EC100B51EC100BF0
:1045800005F0F0F801902AE0019805F018F941ECE7
:10459000100B9FED171B53EC112B51EC100B04F07B
:1045A0004BFF41EC100B51EC100B05F0DBF80190C8
:1045B00015E0019805F003F941EC100B9FED0A1B83
:1045C00053EC112B51EC100B04F036FF41EC100BA7
:1045D00051EC100B05F0C6F8019000E0FFE70198E0
:1045E00002B080BD00BF00BF0000000000003040EE
:1045F000000000000000204000000000000010400B
:10460000000000000000004080B584B003900398D3
:1046100005F0D5F841EC100B8DED000B40F23C009D
:10462000C2F20000006805F0CAF841EC100B9FEDE3
:10463000161B53EC112B51EC100B04F0FDFE9DEDFD
:10464000000B41EC110B53EC112B51EC100B05F04E
:1046500041F941EC100B51EC100B05F083F802907E
:1046600041F20401CEF2000100200860FFE741F2B0
:104670000400CEF2000000680299884201D2FFE7F0
:10468000F5E704B080BD00BF0000000000408F408F
:1046900080B584B00390039805F091F841EC100BBD
:1046A0008DED000B40F23C00C2F20000006805F006
:1046B00086F841EC100B9FED161B53EC112B51ECBF
:1046C000100B04F0B9FE9DED000B41EC110B53EC07
:1046D000112B51EC100B05F0FDF841EC100B51ECD7
:1046E000100B05F03FF8029041F20401CEF20001F8
:1046F00000200860FFE741F20400CEF200000068ED
:104700000299884201D2FFE7F5E704B080BD00BFFF
:104710000000000000408F4081B08DF803009DF93B
:10472000030000280ED4FFE79DF9031001F01F02DB
:10473000012090404A094EF20011CEF2000141F8EA
:104740002200FFE701B0704781B000900098007927
:1047500000F0010001B0704782B001908DF80310A5
:1047600001999DF8030000F00100087102B0704744
:1047700081B0009000984AF2C831C0F600010831BB
:1047800001600021017101B07047000081B000900C
:1047900001B0704780B582B001908DF80310019888
:1047A00080689DF8031050F8210001684968884727
:1047B00002B080BD80B584B00390039901910020C0
:1047C000C8808DF80B00FFE701999DF80B0009796F
:1047D00088421CDAFFE7019880689DF80B1050F8BA
:1047E000210001684968884750B1FFE701999DF8A9
:1047F0000B20012000FA02F2C8881043C880FFE7AE
:10480000FFE79DF80B0001308DF80B00DCE7019805
:10481000C08804B080BD000081B0009001B0704736
:1048200080B582B001908DF803108DF802200198B8
:1048300080689DF8031050F8210001680A689DF80F
:10484000021001F00101904702B080BD80B584B034
:104850000390ADF80A1003990191BDF80A00C880D1
:1048600000208DF80900FFE701999DF809000979FA
:10487000884214DAFFE7019988689DF8092050F80A
:104880002200C988D1400268126801F001019047F6
:10489000FFE79DF8090001308DF80900E4E704B056
:1048A00080BD000081B000900098007901B0704791
:1048B00080B584B003908DF80B10039801909DF89B
:1048C0000B1001710079800002F008F801998860EE
:1048D00000208DF80A00FFE701999DF80A00097988
:1048E00088420EDAFFE7019881689DF80A200020CF
:1048F00041F82200FFE79DF80A0001308DF80A0018
:10490000EAE704B080BD000081B0009001B07047BC
:1049100081B0009001B0704781B0009000984AF2D9
:10492000D831C0F6000108310160002101718160B9
:1049300001B0704780B584B0029002980190039056
:104940004AF2D831C0F6000108310160007908B997
:10495000FFE708E001988068009020B1FFE7009829
:1049600001F0BAFFFFE7039804B080BD80B584B0C2
:104970000390029103980190029900F06FF801985A
:1049800000F002F804B080BD80B582B001900198BB
:10499000017B4A00032101FA02F3826811689943FE
:1049A0001160017B4A00012101FA02F3826811685B
:1049B0001943116001680A680021904702B080BD68
:1049C00080B584B0039002918DF807200398009081
:1049D000029900F043F80098017B4A00022101FA95
:1049E00002F38268116819431160007B072817DC05
:1049F000FFE70098017B8A000F2101FA02F3826829
:104A0000116A994311629DF8071001F00F01027BB2
:104A1000920001FA02F28168086A104308621BE002
:104A20000098017B6FF01F0202EB81030F2101FA56
:104A300003FC8368596A21EA0C0159629DF807104A
:104A400001F00F01037B02EB830201FA02F281689D
:104A5000486A10434862FFE704B080BD84B0039009
:104A6000029103980090029800F0F0000146019135
:104A700080B1FFE7019810281AD0FFE7019820289D
:104A800025D0FFE70198302830D0FFE70198402873
:104A90003BD049E000990020C4F20200886043F650
:104AA0003001C4F20201086840F0010008603BE0F8
:104AB000009940F20040C4F20200886043F63001E1
:104AC000C4F20201086840F0020008602CE000997E
:104AD00040F60000C4F20200886043F63001C4F2E0
:104AE0000201086840F0040008601DE0009940F6EB
:104AF0000040C4F20200886043F63001C4F20201B3
:104B0000086840F0080008600EE0009941F20000DB
:104B1000C4F20200886043F63001C4F20201086862
:104B200040F010000860FFE70098029901F00F01C3
:104B300001730299C1F303114173027B012101FA50
:104B400002F20261027B103291404161017B4A0016
:104B5000032101FA02FC83681A6822EA0C021A6037
:104B60008368D0F810C05A6822EA0C025A60027BAF
:104B7000520001FA02FC83689A6822EA0C029A60E9
:104B8000027B520001FA02FC83689A6842EA0C0236
:104B90009A60027B520001FA02F28168C868904371
:104BA000C86004B07047000081B000900098816830
:104BB000096902691140002918BF012101710079BA
:104BC00000F0010001B0704781B000900098017BB7
:104BD0004A00012101FA02F28168C8681043C860E6
:104BE00001B0704783B002908DF8071002980090D2
:104BF0009DF8071001F0010101710079C00738B17B
:104C0000FFE700988168026988691043886106E0BF
:104C1000009881684269886910438861FFE703B0A2
:104C20007047000081B000900098017B4A0002218B
:104C300001FA02F28168C8681043C86001B0704789
:104C400080B582B00190009101980099FFF706FFAE
:104C500002B080BD80B582B001900198017B427B9B
:104C600041EA0211FFF7ECFF02B080BD80B582B0CF
:104C7000019001980090FFF77BFD00984AF20041F7
:104C8000C0F600010831016002B080BD80B584B07B
:104C900003908DF80B100398019001680A689DF845
:104CA0000B1001F0010190470198007900F001001C
:104CB00004B080BD80B582B0019000910198009948
:104CC000FFF754FE02B080BD81B0009000984168AB
:104CD000086840F08000086001B0704781B0009023
:104CE0000098416808684FF67F721040086001B074
:104CF0007047000082B001908DF80310019842685F
:104D000011684FF6FC73194011609DF8031001F013
:104D10000302416808681043086002B07047000051
:104D200080B59AB0DDF870C019908DF863108DF8D9
:104D300062208DF861301998149001201790052099
:104D40008DF85B0007208DF85A009DF86300073846
:104D5000014615912F2800F254801599DFE801F0E3
:104D600018515151515151515151513C51511851BA
:104D700051515151515151512A5151512A51515171
:104D800051515151513C5151515151515151513C3D
:104D9000149943F20000C4F20100486043F6440154
:104DA000C4F20201086840F480500860FFF7ACFBD1
:104DB000179026E0149943F60000C4F20000486002
:104DC00043F64001C4F20201086840F480400860E4
:104DD000FFF71AFB179014E0149906208DF85B007A
:104DE00043F60040C4F20000486043F64001C4F2BC
:104DF0000201086840F400400860FFF705FB1790C7
:104E0000FFE7149808309DF862109DF85B20FFF7CB
:104E1000D7FD149820309DF863109DF85B20FFF7B4
:104E2000CFFD149838309DF861109DF85B20FFF796
:104E3000C7FD07208DF85900FFE79DF85900FF28AE
:104E400000F04281FFE79DF85900014613910728C1
:104E500000F233811399DFE811F008002D005200B1
:104E600077009C00C100E6000B01179804F0A7FC36
:104E700041EC100B9FEDD41B53EC112B51EC100B9C
:104E800004F0DAFA41EC100B8DED100B1C9804F0D5
:104E900096FC9DED101B41EC100B51EC110B53ECEB
:104EA000102B04F053FF20B9FFE700208DF85A00C3
:104EB000FFE702E1179804F082FC41EC100B9FED34
:104EC000C41B53EC112B51EC100B04F0B5FA41EC60
:104ED000100B8DED0E0B1C9804F071FC9DED0E1B5C
:104EE00041EC100B51EC110B53EC102B04F02EFF86
:104EF00020B9FFE701208DF85A00FFE7DDE01798A1
:104F000004F05DFC41EC100B9FEDB31B53EC112B37
:104F100051EC100B04F090FA41EC100B8DED0C0BE2
:104F20001C9804F04CFC9DED0C1B41EC100B51EC5B
:104F3000110B53EC102B04F009FF20B9FFE70220FE
:104F40008DF85A00FFE7B8E0179804F038FC41EC00
:104F5000100B9FEDD71B53EC112B51EC100B04F0F1
:104F60006BFA41EC100B8DED0A0B1C9804F027FC3A
:104F70009DED0A1B41EC100B51EC110B53EC102B67
:104F800004F0E4FE20B9FFE703208DF85A00FFE7A4
:104F900093E0179804F013FC41EC100B9FEDC21B3B
:104FA00053EC112B51EC100B04F046FA41EC100BB2
:104FB0008DED080B1C9804F002FC9DED081B41ECE4
:104FC000100B51EC110B53EC102B04F0BFFE20B969
:104FD000FFE704208DF85A00FFE76EE0179804F011
:104FE000EEFB41EC100B9FEDAE1B53EC112B51EC83
:104FF000100B04F021FA41EC100B8DED060B1C9800
:1050000004F0DDFB9DED061B41EC100B51EC110B88
:1050100053EC102B04F09AFE20B9FFE705208DF821
:105020005A00FFE749E0179804F0C9FB41EC100B68
:105030009FED991B53EC112B51EC100B04F0FCF974
:1050400041EC100B8DED040B1C9804F0B8FB9DEDAA
:10505000041B41EC100B51EC110B53EC102B04F022
:1050600075FE20B9FFE706208DF85A00FFE724E01F
:10507000179804F0A4FB41EC100B9FED851B53EC3B
:10508000112B51EC100B04F0D7F941EC100B8DED06
:10509000020B1C9804F093FB9DED021B41EC100BDE
:1050A00051EC110B53EC102B04F050FE20B9FFE72C
:1050B00007208DF85A00FFE7FFE7FFE79DF859004A
:1050C00001388DF85900B8E6149842680021516003
:1050D000426811609DF85A1001F007034268116898
:1050E00041EAC30111604268516841F00401516016
:1050F0004268116841F0040111604168086840F09D
:10510000400008609DF85A0001460191072800F20E
:10511000BB800199DFE801F004192E4364798EA366
:10512000179804F04CFB41EC100B9FED671B53EC00
:10513000112B51EC100B04F07FF941EC100B51ECEA
:10514000100B04F00FFB17909EE0179804F037FB4C
:1051500041EC100B9FED5A1B53EC112B51EC100B33
:1051600004F06AF941EC100B51EC100B04F0FAFA60
:10517000179089E0179804F022FB41EC100B9FED8B
:105180004E1B53EC112B51EC100B04F055F941EC74
:10519000100B51EC100B04F0E5FA179074E017981F
:1051A00004F00DFB41EC100B9FED411B53EC112B58
:1051B00051EC100B04F040F941EC100B51EC100BCA
:1051C00004F0D0FA17905FE00000000000000040FB
:1051D000000000000000104000000000000020401F
:1051E000179804F0ECFA41EC100B9FED2F1B53ECD9
:1051F000112B51EC100B04F01FF941EC100B51EC8A
:10520000100B04F0AFFA17903EE0179804F0D7FAAD
:1052100041EC100B9FED221B53EC112B51EC100BAA
:1052200004F00AF941EC100B51EC100B04F09AFA5F
:10523000179029E0179804F0C2FA41EC100B9FED8B
:10524000161B53EC112B51EC100B04F0F5F841EC4C
:10525000100B51EC100B04F085FA179014E017981E
:1052600004F0ADFA41EC100B9FED091B53EC112B30
:1052700051EC100B04F0E0F841EC100B51EC100B6A
:1052800004F070FA1790FFE71AB080BD00BF00BFAE
:1052900000000000000070400000000000006040BE
:1052A00000000000000050400000000000004040EE
:1052B000000000000000304000000000000020401E
:1052C000000000000000104000000000000000404E
:1052D00080B584B003900291039802990268D2F8D5
:1052E00008C06A461160072106220523E04704B082
:1052F00080BD000080B582B00190019801684A68C5
:105300004AF22011C0F20701904702B080BD0000B0
:1053100083B002908DF80710029900919DF8070064
:105320004968C860FFE700984068806880070028E7
:1053300001D4FFE7F7E7FFE70098406880680006C0
:10534000002801D5FFE7F7E700984068C068C0B2C1
:1053500003B0704780B584B003900398029001F0C9
:105360002FF802984AF21041C0F6000101F108023C
:10537000014641F8382B01910830FFF777FC02987D
:105380002030FFF773FC0198FFF770FC029804B01F
:1053900080BD000080B582B001908DF803100198A7
:1053A0009DF803100268D26990479DF8030002B08F
:1053B00080BD000080B582B0019001980168CA6983
:1053C0000021904702B080BD80B588B0079006915B
:1053D000059204930798019000200390069802908C
:1053E0000498007808B9FFE718E0FFE704980399EC
:1053F000405C98B1FFE701980299059A049BDDF89B
:105400000CC00CF1010ECDF80CE013F80C3000F0DC
:10541000E5F80146029808440290E7E708B080BD2D
:1054200084B0039002910399009102980078086477
:1054300002984078486408200190FFE7019801280D
:1054400010DBFFE70098406C0199B0EBC10F04D866
:10545000FFE700990198C864FFE7FFE7019801386A
:105460000190EBE70099086C88648A6CC86C504323
:10547000013008650298486504B0704781B000901B
:1054800001B070478AB084460A98CDF820C00791D1
:10549000069205938DF8130008989DF81310203993
:1054A000026D514303910599CA1701EB5271C9105E
:1054B00002910599029AA1EBC2010191C06C069973
:1054C000029A00FB012003990844013000900799DB
:1054D000009808448078019A4AF2C821C0F6000179
:1054E00051F82210084204D0FFE701208DF8270070
:1054F00003E000208DF82700FFE79DF827000AB0A1
:105500007047000080B586B00590049103928DF835
:105510000B300598416D049A039B9DF80BC0EE4635
:10552000CEF800C0FFF7AEFF06B080BD80B586B0F4
:10553000DDF820C005900491039202930598009035
:1055400003980190FFE70198089988420EDCFFE775
:1055500000980499029A019BD0F800C0DCF80CC0B6
:10556000E047FFE7019801300190ECE706B080BD0D
:1055700083B002900191009203B0704784B0039011
:1055800002910192009304B07047000084B0039030
:1055900002910192009304B07047000082B0019024
:1055A00000910199009881F834000098000A81F870
:1055B000350002B07047000083B002908DF80710EC
:1055C00002989DF807102039026D51430091416DFA
:1055D00000980844807803B07047000080B588B018
:1055E0000790069105928DF81330079800909DF86A
:1055F0001310FFF7E1FF039000200290FFE70298ED
:105600000399884227DAFFE700200190FFE700991D
:105610000198496C884219D2FFE700980299019AD3
:105620009DF81330FFF76EFF58B1FFE7009802991D
:10563000069A1144019A059B1A4403685B689847CF
:10564000FFE7FFE7019801300190E0E7FFE70298EC
:1056500001300290D3E70398013008B080BD00000C
:1056600081B0009001B0704780B582B00190019880
:1056700000904AF24041C0F600010831016000216B
:10568000C16201638163C16380F8341080F8351012
:105690004AF28401C0F60001FFF7C2FE009802B092
:1056A00080BD00002DE9F04F95B0DDF8A8C0DDF811
:1056B000A4C0DDF8A0C0DDF89CC0DDF898C0DDF81E
:1056C00094C0DDF890C0DDF88CC0DDF888C0DDF84E
:1056D00084C0DDF880C0DDF87CC0DDF878C01490AF
:1056E000139112921193149810901399129A119B7E
:1056F000DDF878C01F9C209D219E229FDDF88C80C4
:10570000DDF89090DDF894A0DDF898B027980F9020
:1057100028980E9029980D902A98EE46CEF83000E1
:105720000D98CEF82C000E98CEF828000F98CEF8E1
:1057300024001098CEF820B0CEF81CA0CEF8189017
:10574000CEF81480CEF81070CEF80C60CEF8085069
:10575000CEF80440CEF800C000F0D0F810980168F0
:105760008969884715B0BDE8F08F000080B584B026
:1057700003900398019000208DF80B00FFE701993A
:105780009DF80B000979884211DAFFE7019800695A
:105790009DF80B1001EB410100EBC100FFF7F4F89D
:1057A000FFE79DF80B0001308DF80B00E7E701994A
:1057B00000208881C88104B080BD000080B584B01D
:1057C000039003990191002088818DF80B00FFE779
:1057D00001999DF80B00097988421FDAFFE70198CB
:1057E00001699DF80B0000EB400201EBC20051F88B
:1057F00032104968884750B1FFE701999DF80B20A6
:10580000012000FA02F2888910438881FFE7FFE750
:105810009DF80B0001308DF80B00D9E701988089C5
:1058200004B080BD80B584B003900398019000203F
:105830008DF80B00FFE701999DF80B00097988426C
:105840001ADAFFE70198C0899DF80B10C840C0071D
:1058500058B1FFE7019800699DF80B1001EB410179
:1058600000EBC100FFF7B0F9FFE7FFE79DF80B0081
:1058700001308DF80B00DEE704B080BD80B584B048
:105880000390ADF80A100398019000208DF80900EC
:10589000FFE701999DF809000979884228DAFFE7B6
:1058A000019880899DF80920012101FA02F2104037
:1058B000BDF80A101140884213D0FFE70198026931
:1058C0009DF809C00CEB4C0302EBC300BDF80A10B5
:1058D00021FA0CF152F83320126801F001019047CF
:1058E000FFE7FFE79DF8090001308DF80900D0E7D8
:1058F0000199BDF80A00888104B080BD80B58CB0E4
:10590000DDF868C0DDF864C0DDF860C0DDF85CC0BB
:10591000DDF858C0DDF854C0DDF850C0DDF84CC0EB
:10592000DDF848C0DDF844C0DDF840C0DDF83CC01B
:10593000DDF838C00B900A91099208930B980690F5
:1059400001208DF81F000998013030B1FFE79DF864
:105950001F0001308DF81F00FFE70898013030B1BB
:10596000FFE79DF81F0001308DF81F00FFE70E983C
:10597000013030B1FFE79DF81F0001308DF81F00A6
:10598000FFE70F98013030B1FFE79DF81F000130AD
:105990008DF81F00FFE71098013030B1FFE79DF848
:1059A0001F0001308DF81F00FFE71198013030B162
:1059B000FFE79DF81F0001308DF81F00FFE71298E8
:1059C000013030B1FFE79DF81F0001308DF81F0056
:1059D000FFE71398013030B1FFE79DF81F00013059
:1059E0008DF81F00FFE71498013030B1FFE79DF8F4
:1059F0001F0001308DF81F00FFE71598013030B10E
:105A0000FFE79DF81F0001308DF81F00FFE7169893
:105A1000013030B1FFE79DF81F0001308DF81F0005
:105A2000FFE71798013030B1FFE79DF81F00013004
:105A30008DF81F00FFE71898013030B1FFE79DF89F
:105A40001F0001308DF81F00FFE71998013030B1B9
:105A5000FFE79DF81F0001308DF81F00FFE71A983F
:105A6000013030B1FFE79DF81F0001308DF81F00B5
:105A7000FFE706989DF81F10FEF71AFF9DF81F001C
:105A800004900146039100EB4000C00000F026FFA7
:105A9000014604980591B0B1FFE70598039901EB21
:105AA000410100EBC10101910290FFE702980090D3
:105AB000FFF7DCF80098019A00F1180108469142BE
:105AC0000290F3D1FFE706980599016100690A99F0
:105AD000FEF7C4FF0998013038B1FFE70698006966
